{"contracts/Crowdfunding.sol":{"CrowdfundingPlatform":{"abi":[{"inputs":[],"stateMutability":"nonpayable","type":"constructor"},{"anonymous":false,"inputs":[{"indexed":true,"internalType":"uint256","name":"id","type":"uint256"},{"indexed":true,"internalType":"address","name":"creator","type":"address"},{"indexed":false,"internalType":"string","name":"title","type":"string"},{"indexed":false,"internalType":"uint256","name":"goal","type":"uint256"},{"indexed":false,"internalType":"uint256","name":"deadline","type":"uint256"}],"name":"CampaignCreated","type":"event"},{"anonymous":false,"inputs":[{"indexed":true,"internalType":"uint256","name":"id","type":"uint256"},{"indexed":true,"internalType":"address","name":"contributor","type":"address"},{"indexed":false,"internalType":"uint256","name":"amount","type":"uint256"},{"indexed":false,"internalType":"enum CrowdfundingPlatform.FundTier","name":"tier","type":"uint8"}],"name":"Funded","type":"event"},{"anonymous":false,"inputs":[{"indexed":true,"internalType":"uint256","name":"campaignId","type":"uint256"},{"indexed":true,"internalType":"uint256","name":"milestoneIndex","type":"uint256"},{"indexed":false,"internalType":"uint256","name":"amount","type":"uint256"},{"indexed":false,"internalType":"string","name":"description","type":"string"}],"name":"MilestoneCreated","type":"event"},{"anonymous":false,"inputs":[{"indexed":true,"internalType":"uint256","name":"campaignId","type":"uint256"},{"indexed":true,"internalType":"uint256","name":"milestoneIndex","type":"uint256"},{"indexed":false,"internalType":"uint256","name":"amount","type":"uint256"}],"name":"MilestoneReleased","type":"event"},{"anonymous":false,"inputs":[{"indexed":true,"internalType":"uint256","name":"campaignId","type":"uint256"},{"indexed":true,"internalType":"address","name":"recipient","type":"address"},{"indexed":false,"internalType":"enum CrowdfundingPlatform.FundTier","name":"tier","type":"uint8"},{"indexed":false,"internalType":"uint256","name":"tokenId","type":"uint256"}],"name":"NFTMinted","type":"event"},{"anonymous":false,"inputs":[{"indexed":true,"internalType":"address","name":"previousOwner","type":"address"},{"indexed":true,"internalType":"address","name":"newOwner","type":"address"}],"name":"OwnershipTransferred","type":"event"},{"anonymous":false,"inputs":[{"indexed":true,"internalType":"uint256","name":"id","type":"uint256"},{"indexed":true,"internalType":"address","name":"contributor","type":"address"},{"indexed":false,"internalType":"uint256","name":"amount","type":"uint256"}],"name":"RefundClaimed","type":"event"},{"inputs":[{"internalType":"uint256","name":"_id","type":"uint256"},{"internalType":"uint256[]","name":"_amounts","type":"uint256[]"},{"internalType":"string[]","name":"_descriptions","type":"string[]"}],"name":"addMilestones","outputs":[],"stateMutability":"nonpayable","type":"function"},{"inputs":[{"internalType":"uint256","name":"","type":"uint256"},{"internalType":"uint256","name":"","type":"uint256"}],"name":"campaignContributors","outputs":[{"internalType":"address","name":"","type":"address"}],"stateMutability":"view","type":"function"},{"inputs":[],"name":"campaignCount","outputs":[{"internalType":"uint256","name":"","type":"uint256"}],"stateMutability":"view","type":"function"},{"inputs":[{"internalType":"uint256","name":"","type":"uint256"}],"name":"campaigns","outputs":[{"internalType":"address","name":"creator","type":"address"},{"internalType":"string","name":"title","type":"string"},{"internalType":"string","name":"description","type":"string"},{"internalType":"string","name":"imageURI","type":"string"},{"internalType":"uint256","name":"goal","type":"uint256"},{"internalType":"uint256","name":"minContribution","type":"uint256"},{"internalType":"uint256","name":"maxContribution","type":"uint256"},{"internalType":"uint256","name":"deadline","type":"uint256"},{"internalType":"uint256","name":"amountRaised","type":"uint256"},{"internalType":"uint256","name":"contributorCount","type":"uint256"},{"internalType":"enum CrowdfundingPlatform.CampaignState","name":"state","type":"uint8"},{"internalType":"bool","name":"useWhitelist","type":"bool"},{"internalType":"bytes32","name":"merkleRoot","type":"bytes32"},{"internalType":"address","name":"rewardNFT","type":"address"},{"internalType":"uint256","name":"currentMilestone","type":"uint256"},{"internalType":"uint256","name":"createdAt","type":"uint256"}],"stateMutability":"view","type":"function"},{"inputs":[{"internalType":"uint256","name":"_id","type":"uint256"}],"name":"cancelCampaign","outputs":[],"stateMutability":"nonpayable","type":"function"},{"inputs":[{"internalType":"uint256","name":"_id","type":"uint256"}],"name":"claimRefund","outputs":[],"stateMutability":"nonpayable","type":"function"},{"inputs":[{"internalType":"uint256","name":"","type":"uint256"},{"internalType":"address","name":"","type":"address"}],"name":"contributions","outputs":[{"internalType":"uint256","name":"amount","type":"uint256"},{"internalType":"uint256","name":"timestamp","type":"uint256"},{"internalType":"bool","name":"claimed","type":"bool"}],"stateMutability":"view","type":"function"},{"inputs":[{"internalType":"string","name":"_title","type":"string"},{"internalType":"string","name":"_description","type":"string"},{"internalType":"string","name":"_imageURI","type":"string"},{"internalType":"uint256","name":"_goal","type":"uint256"},{"internalType":"uint256","name":"_minContribution","type":"uint256"},{"internalType":"uint256","name":"_maxContribution","type":"uint256"},{"internalType":"uint256","name":"_durationInDays","type":"uint256"},{"internalType":"bool","name":"_useWhitelist","type":"bool"},{"internalType":"bytes32","name":"_merkleRoot","type":"bytes32"}],"name":"createCampaign","outputs":[{"internalType":"uint256","name":"","type":"uint256"}],"stateMutability":"nonpayable","type":"function"},{"inputs":[{"internalType":"address","name":"","type":"address"},{"internalType":"uint256","name":"","type":"uint256"}],"name":"creatorCampaigns","outputs":[{"internalType":"uint256","name":"","type":"uint256"}],"stateMutability":"view","type":"function"},{"inputs":[],"name":"feeRecipient","outputs":[{"internalType":"address","name":"","type":"address"}],"stateMutability":"view","type":"function"},{"inputs":[{"internalType":"uint256","name":"_id","type":"uint256"},{"internalType":"bytes32[]","name":"_merkleProof","type":"bytes32[]"}],"name":"fund","outputs":[],"stateMutability":"payable","type":"function"},{"inputs":[{"internalType":"uint256","name":"_id","type":"uint256"}],"name":"getCampaign","outputs":[{"internalType":"address","name":"creator","type":"address"},{"internalType":"string","name":"title","type":"string"},{"internalType":"string","name":"description","type":"string"},{"internalType":"string","name":"imageURI","type":"string"},{"internalType":"uint256","name":"goal","type":"uint256"},{"internalType":"uint256","name":"minContribution","type":"uint256"},{"internalType":"uint256","name":"maxContribution","type":"uint256"},{"internalType":"uint256","name":"deadline","type":"uint256"},{"internalType":"uint256","name":"amountRaised","type":"uint256"},{"internalType":"uint256","name":"contributorCount","type":"uint256"},{"internalType":"enum CrowdfundingPlatform.CampaignState","name":"state","type":"uint8"},{"internalType":"uint256","name":"milestoneCount","type":"uint256"},{"internalType":"uint256","name":"currentMilestone","type":"uint256"}],"stateMutability":"view","type":"function"},{"inputs":[{"internalType":"uint256","name":"_id","type":"uint256"}],"name":"getContributors","outputs":[{"internalType":"address[]","name":"","type":"address[]"}],"stateMutability":"view","type":"function"},{"inputs":[{"internalType":"uint256","name":"_id","type":"uint256"}],"name":"getMilestones","outputs":[{"internalType":"uint256[]","name":"amounts","type":"uint256[]"},{"internalType":"string[]","name":"descriptions","type":"string[]"},{"internalType":"bool[]","name":"released","type":"bool[]"}],"stateMutability":"view","type":"function"},{"inputs":[{"internalType":"uint256","name":"","type":"uint256"},{"internalType":"uint256","name":"","type":"uint256"}],"name":"milestones","outputs":[{"internalType":"uint256","name":"amount","type":"uint256"},{"internalType":"string","name":"description","type":"string"},{"internalType":"bool","name":"released","type":"bool"},{"internalType":"uint256","name":"releasedAt","type":"uint256"}],"stateMutability":"view","type":"function"},{"inputs":[],"name":"owner","outputs":[{"internalType":"address","name":"","type":"address"}],"stateMutability":"view","type":"function"},{"inputs":[],"name":"platformFee","outputs":[{"internalType":"uint256","name":"","type":"uint256"}],"stateMutability":"view","type":"function"},{"inputs":[{"internalType":"uint256","name":"_id","type":"uint256"},{"internalType":"uint256","name":"_milestoneIndex","type":"uint256"}],"name":"releaseMilestone","outputs":[],"stateMutability":"nonpayable","type":"function"},{"inputs":[],"name":"renounceOwnership","outputs":[],"stateMutability":"nonpayable","type":"function"},{"inputs":[{"internalType":"uint256","name":"","type":"uint256"}],"name":"rewardNFTs","outputs":[{"internalType":"address","name":"token","type":"address"}],"stateMutability":"view","type":"function"},{"inputs":[{"internalType":"address","name":"_recipient","type":"address"}],"name":"setFeeRecipient","outputs":[],"stateMutability":"nonpayable","type":"function"},{"inputs":[{"internalType":"uint256","name":"_fee","type":"uint256"}],"name":"setPlatformFee","outputs":[],"stateMutability":"nonpayable","type":"function"},{"inputs":[{"internalType":"address","name":"newOwner","type":"address"}],"name":"transferOwnership","outputs":[],"stateMutability":"nonpayable","type":"function"},{"stateMutability":"payable","type":"receive"}],"evm":{"bytecode":{"linkReferences":{},"object":"6080806040523461007157600160008181558154336001600160a01b03198083168217909455916001600160a01b03909116907f8be0079c531659141344cd1fd0a4f28419497f9722a3daafe3b4186f6b6457e09080a360196003553390600454161760045561228a90816100778239f35b600080fdfe6080604052600436101561001b575b361561001957600080fd5b005b60003560e01c806312e8e2c314611e0c578063141961bc14611cd75780631c376c6314611c5e57806326232a2e14611c4057806328ae442a146117d85780633c1ab00f146117025780633d891f591461169957806342c549c01461145457806345598b4a1461136957806346904840146113405780635598f8cc146112155780635b7baf641461103c578063715018a614610fdf5780637274e30d14610fc15780638da5cb5b14610f98578063973538ab14610f64578063b4edfb1614610b10578063dbaf09101461092e578063ddc8af61146108d6578063dfcbf6e8146102af578063e74b981b14610230578063f2fde38b1461016c5763ff96de210361000e57346101675761012b36611fb7565b906000526009602052604060002080548210156101675760209161014e91612082565b905460405160039290921b1c6001600160a01b03168152f35b600080fd5b346101675760203660031901126101675761018561206c565b61018d61209a565b6001600160a01b039081169081156101dc57600154826001600160601b0360a01b821617600155167f8be0079c531659141344cd1fd0a4f28419497f9722a3daafe3b4186f6b6457e0600080a3005b60405162461bcd60e51b815260206004820152602660248201527f4f776e61626c653a206e6577206f776e657220697320746865207a65726f206160448201526564647265737360d01b6064820152608490fd5b346101675760203660031901126101675761024961206c565b61025161209a565b6001600160a01b03168015610278576001600160601b0360a01b6004541617600455600080f35b60405162461bcd60e51b815260206004820152600f60248201526e496e76616c6964206164647265737360881b6044820152606490fd5b3461016757610120366003190112610167576004356001600160401b038111610167576102e0903690600401612016565b6024356001600160401b038111610167576102ff903690600401612016565b906044356001600160401b0381116101675761031f903690600401612016565b9160c4359260e435908115158203610167576064351561089e5760a435608435116108595784159485158061084d575b156108155761035f6002546120f2565b9586600255620151808083029283041417156107ff5761037f9042612101565b946000526005602052604060002092336001600160601b0360a01b85541617845584516001600160401b03811161058f576103bd6001860154611e69565b601f81116107b8575b50806020601f821160011461074b57600091610740575b508160011b916000199060031b1c19161760018501555b8051906001600160401b03821161058f5781906104146002870154611e69565b601f81116106ed575b50602090601f831160011461067b57600092610670575b50508160011b916000199060031b1c19161760028401555b8051906001600160401b03821161058f57819061046c6003860154611e69565b601f811161061d575b50602090601f83116001146105b0576000926105a5575b50508160011b916000199060031b1c19161760038301555b6064356004830155608435600583015560a43560068301558360078301556001600a83019161ff00835491151560081b169061ffff19161717905561010435600b820155600f4291015533600052600a60205260406000209160025491835492600160401b84101561058f576105438460209660017fdc26653af5b99b2da33e2ad69ee6600d9aeccc82b034501db4338309615ca23897018155612082565b819291549060031b91821b91600019901b191617905560025492839161057460405191606083526060830190611f6a565b936064358783015260408201528033940390a3604051908152f35b634e487b7160e01b600052604160045260246000fd5b01519050868061048c565b600386016000908152602081209350601f198516905b81811061060557509084600195949392106105ec575b505050811b0160038301556104a4565b015160001960f88460031b161c191690558680806105dc565b929360206001819287860151815501950193016105c6565b909150600385016000526020600020601f840160051c810160208510610669575b90849392915b601f830160051c8201811061065a575050610475565b60008155859450600101610644565b508061063e565b015190508780610434565b9250600286016000526020600020906000935b601f19841685106106d2576001945083601f198116106106b9575b505050811b01600284015561044c565b015160001960f88460031b161c191690558780806106a9565b8181015183556020948501946001909301929091019061068e565b909150600286016000526020600020601f840160051c810160208510610739575b90849392915b601f830160051c8201811061072a57505061041d565b60008155859450600101610714565b508061070e565b9050860151886103dd565b91506001860160005260206000206000925b601f19831684106107a0576001935082601f19811610610787575b5050811b0160018501556103f4565b88015160001960f88460031b161c191690558880610778565b8881015182556020938401936001909201910161075d565b600186016000526020600020601f830160051c8101602084106107f8575b601f830160051c820181106107ec5750506103c6565b600081556001016107d6565b50806107d6565b634e487b7160e01b600052601160045260246000fd5b60405162461bcd60e51b815260206004820152601060248201526f24b73b30b634b210323ab930ba34b7b760811b6044820152606490fd5b5061016d81111561034f565b60405162461bcd60e51b815260206004820152601a60248201527f496e76616c696420636f6e747269627574696f6e2072616e67650000000000006044820152606490fd5b60405162461bcd60e51b815260206004820152601060248201526f0476f616c206d757374206265203e20360841b6044820152606490fd5b34610167576040366003190112610167576108ef61206c565b6001600160a01b03166000908152600a60205260409020805460243591908210156101675760209161092091612082565b90546040519160031b1c8152f35b346101675761093c36611fb7565b9080151580610b04575b61094f90612160565b8060005260206005815260018060a01b03906109738260406000205416331461210e565b8260005260058152604060002060078252610992856040600020611fcd565b5092600284019182549160ff8316610acc57600e82019586548911610a9957805494600160ff198096161790556003429101556003548085029085820414851517156107ff576103e8900490818503948086116107ff5760008080888194868954169088849114610a90575bf115610a7b576000808093819360045416828215610a87575bf115610a7b5784610a497fd33fcd27cbfb73a2d9058c968b560ccb306500bf536133802048489ecc7355e996546120f2565b9055600881015460048201541115610a67575b5050604051908152a3005b600a60029101918254161790558580610a5c565b6040513d6000823e3d90fd5b506108fc610a17565b506108fc6109fe565b60405162461bcd60e51b815260048101879052600b60248201526a4e6f74207965742064756560a81b6044820152606490fd5b60405162461bcd60e51b815260048101869052601060248201526f105b1c9958591e481c995b19585cd95960821b6044820152606490fd5b50600254811115610946565b6040366003190112610167576001600160401b03602480359060043590838311610167573660238401121561016757826004013590610b4e82611fff565b610b5b6040519182611ea3565b82815260209485820183600595861b830101913683116101675784889101915b838310610f54575050505083151580610f48575b610b9890612160565b8360005282855260ff600a60406000200154169583871015610f33576001809703610ef95784600052838652600760406000200154421015610ec457610bdc6121b9565b846000528386526040600020938401543410610e905760068401543411610e5a5760ff600a85015460081c16610d76575b50508260005260068452604060002033600052845260406000205415610d01575b50600890826000526006845260406000203360005284526040600020610c55348254612101565b90558260005260068452604060002033600052845242856040600020015501610c7f348254612101565b9055610cd6610c8d3461220f565b604051610c9a81836121ac565b600085820152837f36e6128baeed350fad1fe2025296738800de854a1bb3b9330a125e05853c527860403393a3604051933485528401906121ac565b7f1c3831a561dc13bde98e2ad97d9193c9d5e532e1e556bea999f53233bf72d8f660403393a3600055005b60098201610d0f81546120f2565b905582600052600984526040600020805491600160401b831015610d62575081610d40918760089594018155612082565b81546001600160a01b0360039290921b91821b19163390911b17905590610c2e565b634e487b7160e01b60009081526041600452fd5b604051868101913360601b835260148252604082019082821090821117610e4557604052519020600b84015491600090885b610df0575b505003610dbb578580610c0d565b83600f6064926040519262461bcd60e51b845260048401528201526e139bdd081dda1a5d195b1a5cdd1959608a1b6044820152fd5b90918151831015610e3f57610e05838361214c565b519081811015610e2b57600052875287610e2460406000205b936120f2565b9190610da8565b90600052875287610e246040600020610e1e565b91610dad565b84634e487b7160e01b60005260416004526000fd5b60405162461bcd60e51b815260048101879052600f818501526e45786365656473206d6178696d756d60881b6044820152606490fd5b60405162461bcd60e51b815260048101879052600d818501526c42656c6f77206d696e696d756d60981b6044820152606490fd5b60405162461bcd60e51b815260048101879052600e818501526d10d85b5c185a59db88195b99195960921b6044820152606490fd5b60405162461bcd60e51b8152600481018790526013818501527243616d706169676e206e6f742061637469766560681b6044820152606490fd5b82634e487b7160e01b60005260216004526000fd5b50600254841115610b8f565b8235815291810191889101610b7b565b34610167576020366003190112610167576004356000526008602052602060018060a01b0360406000205416604051908152f35b34610167576000366003190112610167576001546040516001600160a01b039091168152602090f35b34610167576000366003190112610167576020600254604051908152f35b3461016757600036600319011261016757610ff861209a565b600180546001600160a01b031981169091556000906001600160a01b03167f8be0079c531659141344cd1fd0a4f28419497f9722a3daafe3b4186f6b6457e08280a3005b34610167576020806003193601126101675760043580151580611209575b61106390612160565b61106b6121b9565b8060005260058252604060002060ff600a820154169060058210156111f357600382149182156111b8575b5050156111835780600052600682526040600020336000528252604060002091825492831561114c57600201805460ff81166111155760ff191660011790556000808080863382f115610a7b577ff3f402280ef0a7905e124aa621b65eaeb2725c343e8b36d398ed78c29daf285c906040519384523393a36001600055005b60405162461bcd60e51b815260048101849052600f60248201526e105b1c9958591e4818db185a5b5959608a1b6044820152606490fd5b60405162461bcd60e51b815260048101839052600f60248201526e27379031b7b73a3934b13aba34b7b760891b6044820152606490fd5b60405162461bcd60e51b815260048101839052600d60248201526c10d85b9b9bdd081c99599d5b99609a1b6044820152606490fd5b6001149150816111e4575b816111d1575b508380611096565b90506004600882015491015411836111c9565b600781015442101591506111c3565b634e487b7160e01b600052602160045260246000fd5b5060025481111561105a565b346101675760203660031901126101675760043580151580611334575b61123b90612160565b60005260056020526040600020600160a01b6001900381541660048201546005830154600684015460078501546008860154600987015490600a88015460ff1692600760205260406000205494600e8a01549660018b0161129b90611ec4565b9a6112a860028201611ec4565b906003016112b590611ec4565b906040519c8d9c8d528c6101a06020819201528d016112d391611f6a565b8c810360408e01526112e491611f6a565b8b810360608d01526112f591611f6a565b9860808b015260a08a015260c089015260e0880152610100870152610120860152610140850161132491611faa565b6101608401526101808301520390f35b50600254811115611232565b34610167576000366003190112610167576004546040516001600160a01b039091168152602090f35b346101675760203660031901126101675760043580151580611448575b61138f90612160565b8060005260056020526113b060018060a01b0360406000205416331461210e565b60005260056020526040600020600881015461140f5760078101544210156113e257600a01805460ff19166004179055005b60405162461bcd60e51b8152602060048201526005602482015264115b99195960da1b6044820152606490fd5b60405162461bcd60e51b815260206004820152601160248201527048617320636f6e747269627574696f6e7360781b6044820152606490fd5b50600254811115611386565b3461016757602080600319360112610167576004358015158061168d575b61147b90612160565b6000526007815260406000209081549161149483611fff565b916114a26040519384611ea3565b8383526114ae84611fff565b83820194601f199182013687376114c481611fff565b916114d26040519384611ea3565b818352806114df83611fff565b0160005b81811061167e5750506114f582611fff565b916115036040519384611ea3565b80835261150f81611fff565b9582868501970136883760005b828110611600575050506040519687966060880190606089525180915260808801919060005b8181106115e9575050508681038588015283519081815285810186808460051b8401019601936000925b8484106115b557505050508684036040880152505051808252908201929160005b82811061159c57505050500390f35b835115158552869550938101939281019260010161158d565b91939596819395999a50886115d582600194868495030188528c51611f6a565b9a0194019401918a9998969593949161156c565b825184528a99509287019291870191600101611542565b8061161461167392849c97989a9b9c611fcd565b5054611620828d61214c565b5261163760016116308386611fcd565b5001611ec4565b611641828b61214c565b5261164c818a61214c565b5060ff600261165b8386611fcd565b50015416611669828961214c565b90151590526120f2565b98979694939861151c565b606085820187015285016114e3565b50600254811115611472565b34610167576040366003190112610167576024356001600160a01b038116908190036101675760043560005260066020526040600020906000526020526060604060002080549060ff600260018301549201541690604051928352602083015215156040820152f35b346101675760208060031936011261016757600435801515806117cc575b61172990612160565b60005260098152604060002060405190818382549182815201908192600052846000209060005b868282106117af57868661176682880383611ea3565b604051928392818401908285525180915260408401929160005b82811061178f57505050500390f35b83516001600160a01b031685528695509381019392810192600101611780565b83546001600160a01b031685529093019260019283019201611750565b50600254811115611720565b34610167576060366003190112610167576024356001600160401b03811161016757366023820112156101675780600401359061181482611fff565b916118226040519384611ea3565b8083526024602084019160051b8301019136831161016757602401905b828210611c3057604435846001600160401b038211610167573660238301121561016757816004013561187181611fff565b9261187f6040519485611ea3565b8184526024602085019260051b820101903682116101675760248101925b828410611c0157858560043560005260056020526118c960018060a01b0360406000205416331461210e565b8051825103611bca57805115611b9557600090815b8151831015611b46576118fc906118f5848461214c565b5190612101565b9160043560005260076020526040600020611917828461214c565b51611922838761214c565b519160405191608083018381106001600160401b0382111761058f5760405282526020820192835260006040830152600060608301528054600160401b81101561058f5761197591600182018155611fcd565b929092611b305781518355518051906001600160401b03821161058f5761199f6001850154611e69565b601f8111611ae9575b50602090601f8311600114611a70579282600393606093611a5f989796600092611a65575b505060001982861b1c1916600191821b17908501555b600284016040820151151560ff80198354169116179055015191015580611a0a818561214c565b517f9a9f4ea7ad47814dd77deb81ff9c701cb5bcd32342b44c1de3038300f1c376bc611a36838961214c565b51916040519081526040602082015280611a57600435946040830190611f6a565b0390a36120f2565b916118de565b015190508b806119cd565b906001850160005260206000209160005b601f1985168110611ad1575083606093611a5f98979693600193600397601f19811610611ab9575b505050811b0160018501556119e3565b015160001983881b60f8161c191690558b8080611aa9565b91926020600181928685015181550194019201611a81565b600185016000526020600020601f840160051c810160208510611b29575b601f830160051c82018110611b1d5750506119a8565b60008155600101611b07565b5080611b07565b634e487b7160e01b600052600060045260246000fd5b600435600052600560205260046040600020015410611b6157005b60405162461bcd60e51b815260206004820152600c60248201526b115e18d959591cc819dbd85b60a21b6044820152606490fd5b60405162461bcd60e51b815260206004820152600d60248201526c4e6f206d696c6573746f6e657360981b6044820152606490fd5b60405162461bcd60e51b815260206004820152600f60248201526e098cadccee8d040dad2e6dac2e8c6d608b1b6044820152606490fd5b83356001600160401b03811161016757602091611c25839260243691870101612016565b81520193019261189d565b813581526020918201910161183f565b34610167576000366003190112610167576020600354604051908152f35b3461016757611c6c36611fb7565b906000526007602052604060002090815481101561016757611c8d91611fcd565b508054611c9c60018301611ec4565b91600360ff600283015416910154611cc66040519485948552608060208601526080850190611f6a565b911515604084015260608301520390f35b3461016757602036600319011261016757600435600090815260056020526040902080546001600160a01b039081169190611d1460018301611ec4565b91611d2160028201611ec4565b90611d2e60038201611ec4565b600482015493600583015460068401546007850154600886015490600987015492600a88015494600b89015496600c8a01541697600e8a015499600f01549a6040519e8f9e8f9182526102008060208401528201611d8b91611f6a565b908082039060400152611d9d91611f6a565b8d810360608f0152611dae91611f6a565b9a60808d015260a08c015260c08b015260e08a0152610100890152610120880152610140870160ff821690611de291611faa565b60081c60ff1615156101608701526101808601526101a08501526101c08401526101e08301520390f35b3461016757602036600319011261016757600435611e2861209a565b60648111611e3557600355005b60405162461bcd60e51b815260206004820152600c60248201526b08ccaca40e8dede40d0d2ced60a31b6044820152606490fd5b90600182811c92168015611e99575b6020831014611e8357565b634e487b7160e01b600052602260045260246000fd5b91607f1691611e78565b90601f801991011681019081106001600160401b0382111761058f57604052565b9060405191826000825492611ed884611e69565b908184526001948581169081600014611f475750600114611f04575b5050611f0292500383611ea3565b565b9093915060005260209081600020936000915b818310611f2f575050611f0293508201013880611ef4565b85548884018501529485019487945091830191611f17565b915050611f0294506020925060ff191682840152151560051b8201013880611ef4565b919082519283825260005b848110611f96575050826000602080949584010152601f8019910116010190565b602081830181015184830182015201611f75565b9060058210156111f35752565b6040906003190112610167576004359060243590565b8054821015611fe95760005260206000209060021b0190600090565b634e487b7160e01b600052603260045260246000fd5b6001600160401b03811161058f5760051b60200190565b81601f82011215610167578035906001600160401b03821161058f576040519261204a601f8401601f191660200185611ea3565b8284526020838301011161016757816000926020809301838601378301015290565b600435906001600160a01b038216820361016757565b8054821015611fe95760005260206000200190600090565b6001546001600160a01b031633036120ae57565b606460405162461bcd60e51b815260206004820152602060248201527f4f776e61626c653a2063616c6c6572206973206e6f7420746865206f776e65726044820152fd5b60001981146107ff5760010190565b919082018092116107ff57565b1561211557565b60405162461bcd60e51b815260206004820152600f60248201526e2737ba103a34329031b932b0ba37b960891b6044820152606490fd5b8051821015611fe95760209160051b010190565b1561216757565b60405162461bcd60e51b815260206004820152601760248201527f43616d706169676e20646f6573206e6f742065786973740000000000000000006044820152606490fd5b9060048210156111f35752565b6002600054146121ca576002600055565b60405162461bcd60e51b815260206004820152601f60248201527f5265656e7472616e637947756172643a207265656e7472616e742063616c6c006044820152606490fd5b674563918244f4000081101561224e57671bc16d674ec80000811015612248576706f05b59d3b20000111561224357600090565b600190565b50600290565b5060039056fea2646970667358221220a4d81c790e00e3f3004fc4eeb43c40fabd74a91d5bbe9b8308c211f657235e5664736f6c63430008130033","opcodes":"PUSH1 0x80 DUP1 PUSH1 0x40 MSTORE CALLVALUE PUSH2 0x71 JUMPI PUSH1 0x1 PUSH1 0x0 DUP2 DUP2 SSTORE DUP2 SLOAD CALLER PUSH1 0x1 PUSH1 0x1 PUSH1 0xA0 SHL SUB NOT DUP1 DUP4 AND DUP3 OR SWAP1 SWAP5 SSTORE SWAP2 PUSH1 0x1 PUSH1 0x1 PUSH1 0xA0 SHL SUB SWAP1 SWAP2 AND SWAP1 PUSH32 0x8BE0079C531659141344CD1FD0A4F28419497F9722A3DAAFE3B4186F6B6457E0 SWAP1 DUP1 LOG3 PUSH1 0x19 PUSH1 0x3 SSTORE CALLER SWAP1 PUSH1 0x4 SLOAD AND OR PUSH1 0x4 SSTORE PUSH2 0x228A SWAP1 DUP2 PUSH2 0x77 DUP3 CODECOPY RETURN JUMPDEST PUSH1 0x0 DUP1 REVERT INVALID PUSH1 0x80 PUSH1 0x40 MSTORE PUSH1 0x4 CALLDATASIZE LT ISZERO PUSH2 0x1B JUMPI JUMPDEST CALLDATASIZE ISZERO PUSH2 0x19 JUMPI PUSH1 0x0 DUP1 REVERT JUMPDEST STOP JUMPDEST PUSH1 0x0 CALLDATALOAD PUSH1 0xE0 SHR DUP1 PUSH4 0x12E8E2C3 EQ PUSH2 0x1E0C JUMPI DUP1 PUSH4 0x141961BC EQ PUSH2 0x1CD7 JUMPI DUP1 PUSH4 0x1C376C63 EQ PUSH2 0x1C5E JUMPI DUP1 PUSH4 0x26232A2E EQ PUSH2 0x1C40 JUMPI DUP1 PUSH4 0x28AE442A EQ PUSH2 0x17D8 JUMPI DUP1 PUSH4 0x3C1AB00F EQ PUSH2 0x1702 JUMPI DUP1 PUSH4 0x3D891F59 EQ PUSH2 0x1699 JUMPI DUP1 PUSH4 0x42C549C0 EQ PUSH2 0x1454 JUMPI DUP1 PUSH4 0x45598B4A EQ PUSH2 0x1369 JUMPI DUP1 PUSH4 0x46904840 EQ PUSH2 0x1340 JUMPI DUP1 PUSH4 0x5598F8CC EQ PUSH2 0x1215 JUMPI DUP1 PUSH4 0x5B7BAF64 EQ PUSH2 0x103C JUMPI DUP1 PUSH4 0x715018A6 EQ PUSH2 0xFDF JUMPI DUP1 PUSH4 0x7274E30D EQ PUSH2 0xFC1 JUMPI DUP1 PUSH4 0x8DA5CB5B EQ PUSH2 0xF98 JUMPI DUP1 PUSH4 0x973538AB EQ PUSH2 0xF64 JUMPI DUP1 PUSH4 0xB4EDFB16 EQ PUSH2 0xB10 JUMPI DUP1 PUSH4 0xDBAF0910 EQ PUSH2 0x92E JUMPI DUP1 PUSH4 0xDDC8AF61 EQ PUSH2 0x8D6 JUMPI DUP1 PUSH4 0xDFCBF6E8 EQ PUSH2 0x2AF JUMPI DUP1 PUSH4 0xE74B981B EQ PUSH2 0x230 JUMPI DUP1 PUSH4 0xF2FDE38B EQ PUSH2 0x16C JUMPI PUSH4 0xFF96DE21 SUB PUSH2 0xE JUMPI CALLVALUE PUSH2 0x167 JUMPI PUSH2 0x12B CALLDATASIZE PUSH2 0x1FB7 JUMP JUMPDEST SWAP1 PUSH1 0x0 MSTORE PUSH1 0x9 PUSH1 0x20 MSTORE PUSH1 0x40 PUSH1 0x0 KECCAK256 DUP1 SLOAD DUP3 LT ISZERO PUSH2 0x167 JUMPI PUSH1 0x20 SWAP2 PUSH2 0x14E SWAP2 PUSH2 0x2082 JUMP JUMPDEST SWAP1 SLOAD PUSH1 0x40 MLOAD PUSH1 0x3 SWAP3 SWAP1 SWAP3 SHL SHR PUSH1 0x1 PUSH1 0x1 PUSH1 0xA0 SHL SUB AND DUP2 MSTORE RETURN JUMPDEST PUSH1 0x0 DUP1 REVERT JUMPDEST CALLVALUE PUSH2 0x167 JUMPI PUSH1 0x20 CALLDATASIZE PUSH1 0x3 NOT ADD SLT PUSH2 0x167 JUMPI PUSH2 0x185 PUSH2 0x206C JUMP JUMPDEST PUSH2 0x18D PUSH2 0x209A JUMP JUMPDEST PUSH1 0x1 PUSH1 0x1 PUSH1 0xA0 SHL SUB SWAP1 DUP2 AND SWAP1 DUP2 ISZERO PUSH2 0x1DC JUMPI PUSH1 0x1 SLOAD DUP3 PUSH1 0x1 PUSH1 0x1 PUSH1 0x60 SHL SUB PUSH1 0xA0 SHL DUP3 AND OR PUSH1 0x1 SSTORE AND PUSH32 0x8BE0079C531659141344CD1FD0A4F28419497F9722A3DAAFE3B4186F6B6457E0 PUSH1 0x0 DUP1 LOG3 STOP JUMPDEST PUSH1 0x40 MLOAD PUSH3 0x461BCD PUSH1 0xE5 SHL DUP2 MSTORE PUSH1 0x20 PUSH1 0x4 DUP3 ADD MSTORE PUSH1 0x26 PUSH1 0x24 DUP3 ADD MSTORE PUSH32 0x4F776E61626C653A206E6577206F776E657220697320746865207A65726F2061 PUSH1 0x44 DUP3 ADD MSTORE PUSH6 0x646472657373 PUSH1 0xD0 SHL PUSH1 0x64 DUP3 ADD MSTORE PUSH1 0x84 SWAP1 REVERT JUMPDEST CALLVALUE PUSH2 0x167 JUMPI PUSH1 0x20 CALLDATASIZE PUSH1 0x3 NOT ADD SLT PUSH2 0x167 JUMPI PUSH2 0x249 PUSH2 0x206C JUMP JUMPDEST PUSH2 0x251 PUSH2 0x209A JUMP JUMPDEST PUSH1 0x1 PUSH1 0x1 PUSH1 0xA0 SHL SUB AND DUP1 ISZERO PUSH2 0x278 JUMPI PUSH1 0x1 PUSH1 0x1 PUSH1 0x60 SHL SUB PUSH1 0xA0 SHL PUSH1 0x4 SLOAD AND OR PUSH1 0x4 SSTORE PUSH1 0x0 DUP1 RETURN JUMPDEST PUSH1 0x40 MLOAD PUSH3 0x461BCD PUSH1 0xE5 SHL DUP2 MSTORE PUSH1 0x20 PUSH1 0x4 DUP3 ADD MSTORE PUSH1 0xF PUSH1 0x24 DUP3 ADD MSTORE PUSH15 0x496E76616C69642061646472657373 PUSH1 0x88 SHL PUSH1 0x44 DUP3 ADD MSTORE PUSH1 0x64 SWAP1 REVERT JUMPDEST CALLVALUE PUSH2 0x167 JUMPI PUSH2 0x120 CALLDATASIZE PUSH1 0x3 NOT ADD SLT PUSH2 0x167 JUMPI PUSH1 0x4 CALLDATALOAD PUSH1 0x1 PUSH1 0x1 PUSH1 0x40 SHL SUB DUP2 GT PUSH2 0x167 JUMPI PUSH2 0x2E0 SWAP1 CALLDATASIZE SWAP1 PUSH1 0x4 ADD PUSH2 0x2016 JUMP JUMPDEST PUSH1 0x24 CALLDATALOAD PUSH1 0x1 PUSH1 0x1 PUSH1 0x40 SHL SUB DUP2 GT PUSH2 0x167 JUMPI PUSH2 0x2FF SWAP1 CALLDATASIZE SWAP1 PUSH1 0x4 ADD PUSH2 0x2016 JUMP JUMPDEST SWAP1 PUSH1 0x44 CALLDATALOAD PUSH1 0x1 PUSH1 0x1 PUSH1 0x40 SHL SUB DUP2 GT PUSH2 0x167 JUMPI PUSH2 0x31F SWAP1 CALLDATASIZE SWAP1 PUSH1 0x4 ADD PUSH2 0x2016 JUMP JUMPDEST SWAP2 PUSH1 0xC4 CALLDATALOAD SWAP3 PUSH1 0xE4 CALLDATALOAD SWAP1 DUP2 ISZERO ISZERO DUP3 SUB PUSH2 0x167 JUMPI PUSH1 0x64 CALLDATALOAD ISZERO PUSH2 0x89E JUMPI PUSH1 0xA4 CALLDATALOAD PUSH1 0x84 CALLDATALOAD GT PUSH2 0x859 JUMPI DUP5 ISZERO SWAP5 DUP6 ISZERO DUP1 PUSH2 0x84D JUMPI JUMPDEST ISZERO PUSH2 0x815 JUMPI PUSH2 0x35F PUSH1 0x2 SLOAD PUSH2 0x20F2 JUMP JUMPDEST SWAP6 DUP7 PUSH1 0x2 SSTORE PUSH3 0x15180 DUP1 DUP4 MUL SWAP3 DUP4 DIV EQ OR ISZERO PUSH2 0x7FF JUMPI PUSH2 0x37F SWAP1 TIMESTAMP PUSH2 0x2101 JUMP JUMPDEST SWAP5 PUSH1 0x0 MSTORE PUSH1 0x5 PUSH1 0x20 MSTORE PUSH1 0x40 PUSH1 0x0 KECCAK256 SWAP3 CALLER PUSH1 0x1 PUSH1 0x1 PUSH1 0x60 SHL SUB PUSH1 0xA0 SHL DUP6 SLOAD AND OR DUP5 SSTORE DUP5 MLOAD PUSH1 0x1 PUSH1 0x1 PUSH1 0x40 SHL SUB DUP2 GT PUSH2 0x58F JUMPI PUSH2 0x3BD PUSH1 0x1 DUP7 ADD SLOAD PUSH2 0x1E69 JUMP JUMPDEST PUSH1 0x1F DUP2 GT PUSH2 0x7B8 JUMPI JUMPDEST POP DUP1 PUSH1 0x20 PUSH1 0x1F DUP3 GT PUSH1 0x1 EQ PUSH2 0x74B JUMPI PUSH1 0x0 SWAP2 PUSH2 0x740 JUMPI JUMPDEST POP DUP2 PUSH1 0x1 SHL SWAP2 PUSH1 0x0 NOT SWAP1 PUSH1 0x3 SHL SHR NOT AND OR PUSH1 0x1 DUP6 ADD SSTORE JUMPDEST DUP1 MLOAD SWAP1 PUSH1 0x1 PUSH1 0x1 PUSH1 0x40 SHL SUB DUP3 GT PUSH2 0x58F JUMPI DUP2 SWAP1 PUSH2 0x414 PUSH1 0x2 DUP8 ADD SLOAD PUSH2 0x1E69 JUMP JUMPDEST PUSH1 0x1F DUP2 GT PUSH2 0x6ED JUMPI JUMPDEST POP PUSH1 0x20 SWAP1 PUSH1 0x1F DUP4 GT PUSH1 0x1 EQ PUSH2 0x67B JUMPI PUSH1 0x0 SWAP3 PUSH2 0x670 JUMPI JUMPDEST POP POP DUP2 PUSH1 0x1 SHL SWAP2 PUSH1 0x0 NOT SWAP1 PUSH1 0x3 SHL SHR NOT AND OR PUSH1 0x2 DUP5 ADD SSTORE JUMPDEST DUP1 MLOAD SWAP1 PUSH1 0x1 PUSH1 0x1 PUSH1 0x40 SHL SUB DUP3 GT PUSH2 0x58F JUMPI DUP2 SWAP1 PUSH2 0x46C PUSH1 0x3 DUP7 ADD SLOAD PUSH2 0x1E69 JUMP JUMPDEST PUSH1 0x1F DUP2 GT PUSH2 0x61D JUMPI JUMPDEST POP PUSH1 0x20 SWAP1 PUSH1 0x1F DUP4 GT PUSH1 0x1 EQ PUSH2 0x5B0 JUMPI PUSH1 0x0 SWAP3 PUSH2 0x5A5 JUMPI JUMPDEST POP POP DUP2 PUSH1 0x1 SHL SWAP2 PUSH1 0x0 NOT SWAP1 PUSH1 0x3 SHL SHR NOT AND OR PUSH1 0x3 DUP4 ADD SSTORE JUMPDEST PUSH1 0x64 CALLDATALOAD PUSH1 0x4 DUP4 ADD SSTORE PUSH1 0x84 CALLDATALOAD PUSH1 0x5 DUP4 ADD SSTORE PUSH1 0xA4 CALLDATALOAD PUSH1 0x6 DUP4 ADD SSTORE DUP4 PUSH1 0x7 DUP4 ADD SSTORE PUSH1 0x1 PUSH1 0xA DUP4 ADD SWAP2 PUSH2 0xFF00 DUP4 SLOAD SWAP2 ISZERO ISZERO PUSH1 0x8 SHL AND SWAP1 PUSH2 0xFFFF NOT AND OR OR SWAP1 SSTORE PUSH2 0x104 CALLDATALOAD PUSH1 0xB DUP3 ADD SSTORE PUSH1 0xF TIMESTAMP SWAP2 ADD SSTORE CALLER PUSH1 0x0 MSTORE PUSH1 0xA PUSH1 0x20 MSTORE PUSH1 0x40 PUSH1 0x0 KECCAK256 SWAP2 PUSH1 0x2 SLOAD SWAP2 DUP4 SLOAD SWAP3 PUSH1 0x1 PUSH1 0x40 SHL DUP5 LT ISZERO PUSH2 0x58F JUMPI PUSH2 0x543 DUP5 PUSH1 0x20 SWAP7 PUSH1 0x1 PUSH32 0xDC26653AF5B99B2DA33E2AD69EE6600D9AECCC82B034501DB4338309615CA238 SWAP8 ADD DUP2 SSTORE PUSH2 0x2082 JUMP JUMPDEST DUP2 SWAP3 SWAP2 SLOAD SWAP1 PUSH1 0x3 SHL SWAP2 DUP3 SHL SWAP2 PUSH1 0x0 NOT SWAP1 SHL NOT AND OR SWAP1 SSTORE PUSH1 0x2 SLOAD SWAP3 DUP4 SWAP2 PUSH2 0x574 PUSH1 0x40 MLOAD SWAP2 PUSH1 0x60 DUP4 MSTORE PUSH1 0x60 DUP4 ADD SWAP1 PUSH2 0x1F6A JUMP JUMPDEST SWAP4 PUSH1 0x64 CALLDATALOAD DUP8 DUP4 ADD MSTORE PUSH1 0x40 DUP3 ADD MSTORE DUP1 CALLER SWAP5 SUB SWAP1 LOG3 PUSH1 0x40 MLOAD SWAP1 DUP2 MSTORE RETURN JUMPDEST PUSH4 0x4E487B71 PUSH1 0xE0 SHL PUSH1 0x0 MSTORE PUSH1 0x41 PUSH1 0x4 MSTORE PUSH1 0x24 PUSH1 0x0 REVERT JUMPDEST ADD MLOAD SWAP1 POP DUP7 DUP1 PUSH2 0x48C JUMP JUMPDEST PUSH1 0x3 DUP7 ADD PUSH1 0x0 SWAP1 DUP2 MSTORE PUSH1 0x20 DUP2 KECCAK256 SWAP4 POP PUSH1 0x1F NOT DUP6 AND SWAP1 JUMPDEST DUP2 DUP2 LT PUSH2 0x605 JUMPI POP SWAP1 DUP5 PUSH1 0x1 SWAP6 SWAP5 SWAP4 SWAP3 LT PUSH2 0x5EC JUMPI JUMPDEST POP POP POP DUP2 SHL ADD PUSH1 0x3 DUP4 ADD SSTORE PUSH2 0x4A4 JUMP JUMPDEST ADD MLOAD PUSH1 0x0 NOT PUSH1 0xF8 DUP5 PUSH1 0x3 SHL AND SHR NOT AND SWAP1 SSTORE DUP7 DUP1 DUP1 PUSH2 0x5DC JUMP JUMPDEST SWAP3 SWAP4 PUSH1 0x20 PUSH1 0x1 DUP2 SWAP3 DUP8 DUP7 ADD MLOAD DUP2 SSTORE ADD SWAP6 ADD SWAP4 ADD PUSH2 0x5C6 JUMP JUMPDEST SWAP1 SWAP2 POP PUSH1 0x3 DUP6 ADD PUSH1 0x0 MSTORE PUSH1 0x20 PUSH1 0x0 KECCAK256 PUSH1 0x1F DUP5 ADD PUSH1 0x5 SHR DUP2 ADD PUSH1 0x20 DUP6 LT PUSH2 0x669 JUMPI JUMPDEST SWAP1 DUP5 SWAP4 SWAP3 SWAP2 JUMPDEST PUSH1 0x1F DUP4 ADD PUSH1 0x5 SHR DUP3 ADD DUP2 LT PUSH2 0x65A JUMPI POP POP PUSH2 0x475 JUMP JUMPDEST PUSH1 0x0 DUP2 SSTORE DUP6 SWAP5 POP PUSH1 0x1 ADD PUSH2 0x644 JUMP JUMPDEST POP DUP1 PUSH2 0x63E JUMP JUMPDEST ADD MLOAD SWAP1 POP DUP8 DUP1 PUSH2 0x434 JUMP JUMPDEST SWAP3 POP PUSH1 0x2 DUP7 ADD PUSH1 0x0 MSTORE PUSH1 0x20 PUSH1 0x0 KECCAK256 SWAP1 PUSH1 0x0 SWAP4 JUMPDEST PUSH1 0x1F NOT DUP5 AND DUP6 LT PUSH2 0x6D2 JUMPI PUSH1 0x1 SWAP5 POP DUP4 PUSH1 0x1F NOT DUP2 AND LT PUSH2 0x6B9 JUMPI JUMPDEST POP POP POP DUP2 SHL ADD PUSH1 0x2 DUP5 ADD SSTORE PUSH2 0x44C JUMP JUMPDEST ADD MLOAD PUSH1 0x0 NOT PUSH1 0xF8 DUP5 PUSH1 0x3 SHL AND SHR NOT AND SWAP1 SSTORE DUP8 DUP1 DUP1 PUSH2 0x6A9 JUMP JUMPDEST DUP2 DUP2 ADD MLOAD DUP4 SSTORE PUSH1 0x20 SWAP5 DUP6 ADD SWAP5 PUSH1 0x1 SWAP1 SWAP4 ADD SWAP3 SWAP1 SWAP2 ADD SWAP1 PUSH2 0x68E JUMP JUMPDEST SWAP1 SWAP2 POP PUSH1 0x2 DUP7 ADD PUSH1 0x0 MSTORE PUSH1 0x20 PUSH1 0x0 KECCAK256 PUSH1 0x1F DUP5 ADD PUSH1 0x5 SHR DUP2 ADD PUSH1 0x20 DUP6 LT PUSH2 0x739 JUMPI JUMPDEST SWAP1 DUP5 SWAP4 SWAP3 SWAP2 JUMPDEST PUSH1 0x1F DUP4 ADD PUSH1 0x5 SHR DUP3 ADD DUP2 LT PUSH2 0x72A JUMPI POP POP PUSH2 0x41D JUMP JUMPDEST PUSH1 0x0 DUP2 SSTORE DUP6 SWAP5 POP PUSH1 0x1 ADD PUSH2 0x714 JUMP JUMPDEST POP DUP1 PUSH2 0x70E JUMP JUMPDEST SWAP1 POP DUP7 ADD MLOAD DUP9 PUSH2 0x3DD JUMP JUMPDEST SWAP2 POP PUSH1 0x1 DUP7 ADD PUSH1 0x0 MSTORE PUSH1 0x20 PUSH1 0x0 KECCAK256 PUSH1 0x0 SWAP3 JUMPDEST PUSH1 0x1F NOT DUP4 AND DUP5 LT PUSH2 0x7A0 JUMPI PUSH1 0x1 SWAP4 POP DUP3 PUSH1 0x1F NOT DUP2 AND LT PUSH2 0x787 JUMPI JUMPDEST POP POP DUP2 SHL ADD PUSH1 0x1 DUP6 ADD SSTORE PUSH2 0x3F4 JUMP JUMPDEST DUP9 ADD MLOAD PUSH1 0x0 NOT PUSH1 0xF8 DUP5 PUSH1 0x3 SHL AND SHR NOT AND SWAP1 SSTORE DUP9 DUP1 PUSH2 0x778 JUMP JUMPDEST DUP9 DUP2 ADD MLOAD DUP3 SSTORE PUSH1 0x20 SWAP4 DUP5 ADD SWAP4 PUSH1 0x1 SWAP1 SWAP3 ADD SWAP2 ADD PUSH2 0x75D JUMP JUMPDEST PUSH1 0x1 DUP7 ADD PUSH1 0x0 MSTORE PUSH1 0x20 PUSH1 0x0 KECCAK256 PUSH1 0x1F DUP4 ADD PUSH1 0x5 SHR DUP2 ADD PUSH1 0x20 DUP5 LT PUSH2 0x7F8 JUMPI JUMPDEST PUSH1 0x1F DUP4 ADD PUSH1 0x5 SHR DUP3 ADD DUP2 LT PUSH2 0x7EC JUMPI POP POP PUSH2 0x3C6 JUMP JUMPDEST PUSH1 0x0 DUP2 SSTORE PUSH1 0x1 ADD PUSH2 0x7D6 JUMP JUMPDEST POP DUP1 PUSH2 0x7D6 JUMP JUMPDEST PUSH4 0x4E487B71 PUSH1 0xE0 SHL PUSH1 0x0 MSTORE PUSH1 0x11 PUSH1 0x4 MSTORE PUSH1 0x24 PUSH1 0x0 REVERT JUMPDEST PUSH1 0x40 MLOAD PUSH3 0x461BCD PUSH1 0xE5 SHL DUP2 MSTORE PUSH1 0x20 PUSH1 0x4 DUP3 ADD MSTORE PUSH1 0x10 PUSH1 0x24 DUP3 ADD MSTORE PUSH16 0x24B73B30B634B210323AB930BA34B7B7 PUSH1 0x81 SHL PUSH1 0x44 DUP3 ADD MSTORE PUSH1 0x64 SWAP1 REVERT JUMPDEST POP PUSH2 0x16D DUP2 GT ISZERO PUSH2 0x34F JUMP JUMPDEST PUSH1 0x40 MLOAD PUSH3 0x461BCD PUSH1 0xE5 SHL DUP2 MSTORE PUSH1 0x20 PUSH1 0x4 DUP3 ADD MSTORE PUSH1 0x1A PUSH1 0x24 DUP3 ADD MSTORE PUSH32 0x496E76616C696420636F6E747269627574696F6E2072616E6765000000000000 PUSH1 0x44 DUP3 ADD MSTORE PUSH1 0x64 SWAP1 REVERT JUMPDEST PUSH1 0x40 MLOAD PUSH3 0x461BCD PUSH1 0xE5 SHL DUP2 MSTORE PUSH1 0x20 PUSH1 0x4 DUP3 ADD MSTORE PUSH1 0x10 PUSH1 0x24 DUP3 ADD MSTORE PUSH16 0x476F616C206D757374206265203E203 PUSH1 0x84 SHL PUSH1 0x44 DUP3 ADD MSTORE PUSH1 0x64 SWAP1 REVERT JUMPDEST CALLVALUE PUSH2 0x167 JUMPI PUSH1 0x40 CALLDATASIZE PUSH1 0x3 NOT ADD SLT PUSH2 0x167 JUMPI PUSH2 0x8EF PUSH2 0x206C JUMP JUMPDEST PUSH1 0x1 PUSH1 0x1 PUSH1 0xA0 SHL SUB AND PUSH1 0x0 SWAP1 DUP2 MSTORE PUSH1 0xA PUSH1 0x20 MSTORE PUSH1 0x40 SWAP1 KECCAK256 DUP1 SLOAD PUSH1 0x24 CALLDATALOAD SWAP2 SWAP1 DUP3 LT ISZERO PUSH2 0x167 JUMPI PUSH1 0x20 SWAP2 PUSH2 0x920 SWAP2 PUSH2 0x2082 JUMP JUMPDEST SWAP1 SLOAD PUSH1 0x40 MLOAD SWAP2 PUSH1 0x3 SHL SHR DUP2 MSTORE RETURN JUMPDEST CALLVALUE PUSH2 0x167 JUMPI PUSH2 0x93C CALLDATASIZE PUSH2 0x1FB7 JUMP JUMPDEST SWAP1 DUP1 ISZERO ISZERO DUP1 PUSH2 0xB04 JUMPI JUMPDEST PUSH2 0x94F SWAP1 PUSH2 0x2160 JUMP JUMPDEST DUP1 PUSH1 0x0 MSTORE PUSH1 0x20 PUSH1 0x5 DUP2 MSTORE PUSH1 0x1 DUP1 PUSH1 0xA0 SHL SUB SWAP1 PUSH2 0x973 DUP3 PUSH1 0x40 PUSH1 0x0 KECCAK256 SLOAD AND CALLER EQ PUSH2 0x210E JUMP JUMPDEST DUP3 PUSH1 0x0 MSTORE PUSH1 0x5 DUP2 MSTORE PUSH1 0x40 PUSH1 0x0 KECCAK256 PUSH1 0x7 DUP3 MSTORE PUSH2 0x992 DUP6 PUSH1 0x40 PUSH1 0x0 KECCAK256 PUSH2 0x1FCD JUMP JUMPDEST POP SWAP3 PUSH1 0x2 DUP5 ADD SWAP2 DUP3 SLOAD SWAP2 PUSH1 0xFF DUP4 AND PUSH2 0xACC JUMPI PUSH1 0xE DUP3 ADD SWAP6 DUP7 SLOAD DUP10 GT PUSH2 0xA99 JUMPI DUP1 SLOAD SWAP5 PUSH1 0x1 PUSH1 0xFF NOT DUP1 SWAP7 AND OR SWAP1 SSTORE PUSH1 0x3 TIMESTAMP SWAP2 ADD SSTORE PUSH1 0x3 SLOAD DUP1 DUP6 MUL SWAP1 DUP6 DUP3 DIV EQ DUP6 ISZERO OR ISZERO PUSH2 0x7FF JUMPI PUSH2 0x3E8 SWAP1 DIV SWAP1 DUP2 DUP6 SUB SWAP5 DUP1 DUP7 GT PUSH2 0x7FF JUMPI PUSH1 0x0 DUP1 DUP1 DUP9 DUP2 SWAP5 DUP7 DUP10 SLOAD AND SWAP1 DUP9 DUP5 SWAP2 EQ PUSH2 0xA90 JUMPI JUMPDEST CALL ISZERO PUSH2 0xA7B JUMPI PUSH1 0x0 DUP1 DUP1 SWAP4 DUP2 SWAP4 PUSH1 0x4 SLOAD AND DUP3 DUP3 ISZERO PUSH2 0xA87 JUMPI JUMPDEST CALL ISZERO PUSH2 0xA7B JUMPI DUP5 PUSH2 0xA49 PUSH32 0xD33FCD27CBFB73A2D9058C968B560CCB306500BF536133802048489ECC7355E9 SWAP7 SLOAD PUSH2 0x20F2 JUMP JUMPDEST SWAP1 SSTORE PUSH1 0x8 DUP2 ADD SLOAD PUSH1 0x4 DUP3 ADD SLOAD GT ISZERO PUSH2 0xA67 JUMPI JUMPDEST POP POP PUSH1 0x40 MLOAD SWAP1 DUP2 MSTORE LOG3 STOP JUMPDEST PUSH1 0xA PUSH1 0x2 SWAP2 ADD SWAP2 DUP3 SLOAD AND OR SWAP1 SSTORE DUP6 DUP1 PUSH2 0xA5C JUMP JUMPDEST PUSH1 0x40 MLOAD RETURNDATASIZE PUSH1 0x0 DUP3 RETURNDATACOPY RETURNDATASIZE SWAP1 REVERT JUMPDEST POP PUSH2 0x8FC PUSH2 0xA17 JUMP JUMPDEST POP PUSH2 0x8FC PUSH2 0x9FE JUMP JUMPDEST PUSH1 0x40 MLOAD PUSH3 0x461BCD PUSH1 0xE5 SHL DUP2 MSTORE PUSH1 0x4 DUP2 ADD DUP8 SWAP1 MSTORE PUSH1 0xB PUSH1 0x24 DUP3 ADD MSTORE PUSH11 0x4E6F742079657420647565 PUSH1 0xA8 SHL PUSH1 0x44 DUP3 ADD MSTORE PUSH1 0x64 SWAP1 REVERT JUMPDEST PUSH1 0x40 MLOAD PUSH3 0x461BCD PUSH1 0xE5 SHL DUP2 MSTORE PUSH1 0x4 DUP2 ADD DUP7 SWAP1 MSTORE PUSH1 0x10 PUSH1 0x24 DUP3 ADD MSTORE PUSH16 0x105B1C9958591E481C995B19585CD959 PUSH1 0x82 SHL PUSH1 0x44 DUP3 ADD MSTORE PUSH1 0x64 SWAP1 REVERT JUMPDEST POP PUSH1 0x2 SLOAD DUP2 GT ISZERO PUSH2 0x946 JUMP JUMPDEST PUSH1 0x40 CALLDATASIZE PUSH1 0x3 NOT ADD SLT PUSH2 0x167 JUMPI PUSH1 0x1 PUSH1 0x1 PUSH1 0x40 SHL SUB PUSH1 0x24 DUP1 CALLDATALOAD SWAP1 PUSH1 0x4 CALLDATALOAD SWAP1 DUP4 DUP4 GT PUSH2 0x167 JUMPI CALLDATASIZE PUSH1 0x23 DUP5 ADD SLT ISZERO PUSH2 0x167 JUMPI DUP3 PUSH1 0x4 ADD CALLDATALOAD SWAP1 PUSH2 0xB4E DUP3 PUSH2 0x1FFF JUMP JUMPDEST PUSH2 0xB5B PUSH1 0x40 MLOAD SWAP2 DUP3 PUSH2 0x1EA3 JUMP JUMPDEST DUP3 DUP2 MSTORE PUSH1 0x20 SWAP5 DUP6 DUP3 ADD DUP4 PUSH1 0x5 SWAP6 DUP7 SHL DUP4 ADD ADD SWAP2 CALLDATASIZE DUP4 GT PUSH2 0x167 JUMPI DUP5 DUP9 SWAP2 ADD SWAP2 JUMPDEST DUP4 DUP4 LT PUSH2 0xF54 JUMPI POP POP POP POP DUP4 ISZERO ISZERO DUP1 PUSH2 0xF48 JUMPI JUMPDEST PUSH2 0xB98 SWAP1 PUSH2 0x2160 JUMP JUMPDEST DUP4 PUSH1 0x0 MSTORE DUP3 DUP6 MSTORE PUSH1 0xFF PUSH1 0xA PUSH1 0x40 PUSH1 0x0 KECCAK256 ADD SLOAD AND SWAP6 DUP4 DUP8 LT ISZERO PUSH2 0xF33 JUMPI PUSH1 0x1 DUP1 SWAP8 SUB PUSH2 0xEF9 JUMPI DUP5 PUSH1 0x0 MSTORE DUP4 DUP7 MSTORE PUSH1 0x7 PUSH1 0x40 PUSH1 0x0 KECCAK256 ADD SLOAD TIMESTAMP LT ISZERO PUSH2 0xEC4 JUMPI PUSH2 0xBDC PUSH2 0x21B9 JUMP JUMPDEST DUP5 PUSH1 0x0 MSTORE DUP4 DUP7 MSTORE PUSH1 0x40 PUSH1 0x0 KECCAK256 SWAP4 DUP5 ADD SLOAD CALLVALUE LT PUSH2 0xE90 JUMPI PUSH1 0x6 DUP5 ADD SLOAD CALLVALUE GT PUSH2 0xE5A JUMPI PUSH1 0xFF PUSH1 0xA DUP6 ADD SLOAD PUSH1 0x8 SHR AND PUSH2 0xD76 JUMPI JUMPDEST POP POP DUP3 PUSH1 0x0 MSTORE PUSH1 0x6 DUP5 MSTORE PUSH1 0x40 PUSH1 0x0 KECCAK256 CALLER PUSH1 0x0 MSTORE DUP5 MSTORE PUSH1 0x40 PUSH1 0x0 KECCAK256 SLOAD ISZERO PUSH2 0xD01 JUMPI JUMPDEST POP PUSH1 0x8 SWAP1 DUP3 PUSH1 0x0 MSTORE PUSH1 0x6 DUP5 MSTORE PUSH1 0x40 PUSH1 0x0 KECCAK256 CALLER PUSH1 0x0 MSTORE DUP5 MSTORE PUSH1 0x40 PUSH1 0x0 KECCAK256 PUSH2 0xC55 CALLVALUE DUP3 SLOAD PUSH2 0x2101 JUMP JUMPDEST SWAP1 SSTORE DUP3 PUSH1 0x0 MSTORE PUSH1 0x6 DUP5 MSTORE PUSH1 0x40 PUSH1 0x0 KECCAK256 CALLER PUSH1 0x0 MSTORE DUP5 MSTORE TIMESTAMP DUP6 PUSH1 0x40 PUSH1 0x0 KECCAK256 ADD SSTORE ADD PUSH2 0xC7F CALLVALUE DUP3 SLOAD PUSH2 0x2101 JUMP JUMPDEST SWAP1 SSTORE PUSH2 0xCD6 PUSH2 0xC8D CALLVALUE PUSH2 0x220F JUMP JUMPDEST PUSH1 0x40 MLOAD PUSH2 0xC9A DUP2 DUP4 PUSH2 0x21AC JUMP JUMPDEST PUSH1 0x0 DUP6 DUP3 ADD MSTORE DUP4 PUSH32 0x36E6128BAEED350FAD1FE2025296738800DE854A1BB3B9330A125E05853C5278 PUSH1 0x40 CALLER SWAP4 LOG3 PUSH1 0x40 MLOAD SWAP4 CALLVALUE DUP6 MSTORE DUP5 ADD SWAP1 PUSH2 0x21AC JUMP JUMPDEST PUSH32 0x1C3831A561DC13BDE98E2AD97D9193C9D5E532E1E556BEA999F53233BF72D8F6 PUSH1 0x40 CALLER SWAP4 LOG3 PUSH1 0x0 SSTORE STOP JUMPDEST PUSH1 0x9 DUP3 ADD PUSH2 0xD0F DUP2 SLOAD PUSH2 0x20F2 JUMP JUMPDEST SWAP1 SSTORE DUP3 PUSH1 0x0 MSTORE PUSH1 0x9 DUP5 MSTORE PUSH1 0x40 PUSH1 0x0 KECCAK256 DUP1 SLOAD SWAP2 PUSH1 0x1 PUSH1 0x40 SHL DUP4 LT ISZERO PUSH2 0xD62 JUMPI POP DUP2 PUSH2 0xD40 SWAP2 DUP8 PUSH1 0x8 SWAP6 SWAP5 ADD DUP2 SSTORE PUSH2 0x2082 JUMP JUMPDEST DUP2 SLOAD PUSH1 0x1 PUSH1 0x1 PUSH1 0xA0 SHL SUB PUSH1 0x3 SWAP3 SWAP1 SWAP3 SHL SWAP2 DUP3 SHL NOT AND CALLER SWAP1 SWAP2 SHL OR SWAP1 SSTORE SWAP1 PUSH2 0xC2E JUMP JUMPDEST PUSH4 0x4E487B71 PUSH1 0xE0 SHL PUSH1 0x0 SWAP1 DUP2 MSTORE PUSH1 0x41 PUSH1 0x4 MSTORE REVERT JUMPDEST PUSH1 0x40 MLOAD DUP7 DUP2 ADD SWAP2 CALLER PUSH1 0x60 SHL DUP4 MSTORE PUSH1 0x14 DUP3 MSTORE PUSH1 0x40 DUP3 ADD SWAP1 DUP3 DUP3 LT SWAP1 DUP3 GT OR PUSH2 0xE45 JUMPI PUSH1 0x40 MSTORE MLOAD SWAP1 KECCAK256 PUSH1 0xB DUP5 ADD SLOAD SWAP2 PUSH1 0x0 SWAP1 DUP9 JUMPDEST PUSH2 0xDF0 JUMPI JUMPDEST POP POP SUB PUSH2 0xDBB JUMPI DUP6 DUP1 PUSH2 0xC0D JUMP JUMPDEST DUP4 PUSH1 0xF PUSH1 0x64 SWAP3 PUSH1 0x40 MLOAD SWAP3 PUSH3 0x461BCD PUSH1 0xE5 SHL DUP5 MSTORE PUSH1 0x4 DUP5 ADD MSTORE DUP3 ADD MSTORE PUSH15 0x139BDD081DDA1A5D195B1A5CDD1959 PUSH1 0x8A SHL PUSH1 0x44 DUP3 ADD MSTORE REVERT JUMPDEST SWAP1 SWAP2 DUP2 MLOAD DUP4 LT ISZERO PUSH2 0xE3F JUMPI PUSH2 0xE05 DUP4 DUP4 PUSH2 0x214C JUMP JUMPDEST MLOAD SWAP1 DUP2 DUP2 LT ISZERO PUSH2 0xE2B JUMPI PUSH1 0x0 MSTORE DUP8 MSTORE DUP8 PUSH2 0xE24 PUSH1 0x40 PUSH1 0x0 KECCAK256 JUMPDEST SWAP4 PUSH2 0x20F2 JUMP JUMPDEST SWAP2 SWAP1 PUSH2 0xDA8 JUMP JUMPDEST SWAP1 PUSH1 0x0 MSTORE DUP8 MSTORE DUP8 PUSH2 0xE24 PUSH1 0x40 PUSH1 0x0 KECCAK256 PUSH2 0xE1E JUMP JUMPDEST SWAP2 PUSH2 0xDAD JUMP JUMPDEST DUP5 PUSH4 0x4E487B71 PUSH1 0xE0 SHL PUSH1 0x0 MSTORE PUSH1 0x41 PUSH1 0x4 MSTORE PUSH1 0x0 REVERT JUMPDEST PUSH1 0x40 MLOAD PUSH3 0x461BCD PUSH1 0xE5 SHL DUP2 MSTORE PUSH1 0x4 DUP2 ADD DUP8 SWAP1 MSTORE PUSH1 0xF DUP2 DUP6 ADD MSTORE PUSH15 0x45786365656473206D6178696D756D PUSH1 0x88 SHL PUSH1 0x44 DUP3 ADD MSTORE PUSH1 0x64 SWAP1 REVERT JUMPDEST PUSH1 0x40 MLOAD PUSH3 0x461BCD PUSH1 0xE5 SHL DUP2 MSTORE PUSH1 0x4 DUP2 ADD DUP8 SWAP1 MSTORE PUSH1 0xD DUP2 DUP6 ADD MSTORE PUSH13 0x42656C6F77206D696E696D756D PUSH1 0x98 SHL PUSH1 0x44 DUP3 ADD MSTORE PUSH1 0x64 SWAP1 REVERT JUMPDEST PUSH1 0x40 MLOAD PUSH3 0x461BCD PUSH1 0xE5 SHL DUP2 MSTORE PUSH1 0x4 DUP2 ADD DUP8 SWAP1 MSTORE PUSH1 0xE DUP2 DUP6 ADD MSTORE PUSH14 0x10D85B5C185A59DB88195B991959 PUSH1 0x92 SHL PUSH1 0x44 DUP3 ADD MSTORE PUSH1 0x64 SWAP1 REVERT JUMPDEST PUSH1 0x40 MLOAD PUSH3 0x461BCD PUSH1 0xE5 SHL DUP2 MSTORE PUSH1 0x4 DUP2 ADD DUP8 SWAP1 MSTORE PUSH1 0x13 DUP2 DUP6 ADD MSTORE PUSH19 0x43616D706169676E206E6F7420616374697665 PUSH1 0x68 SHL PUSH1 0x44 DUP3 ADD MSTORE PUSH1 0x64 SWAP1 REVERT JUMPDEST DUP3 PUSH4 0x4E487B71 PUSH1 0xE0 SHL PUSH1 0x0 MSTORE PUSH1 0x21 PUSH1 0x4 MSTORE PUSH1 0x0 REVERT JUMPDEST POP PUSH1 0x2 SLOAD DUP5 GT ISZERO PUSH2 0xB8F JUMP JUMPDEST DUP3 CALLDATALOAD DUP2 MSTORE SWAP2 DUP2 ADD SWAP2 DUP9 SWAP2 ADD PUSH2 0xB7B JUMP JUMPDEST CALLVALUE PUSH2 0x167 JUMPI PUSH1 0x20 CALLDATASIZE PUSH1 0x3 NOT ADD SLT PUSH2 0x167 JUMPI PUSH1 0x4 CALLDATALOAD PUSH1 0x0 MSTORE PUSH1 0x8 PUSH1 0x20 MSTORE PUSH1 0x20 PUSH1 0x1 DUP1 PUSH1 0xA0 SHL SUB PUSH1 0x40 PUSH1 0x0 KECCAK256 SLOAD AND PUSH1 0x40 MLOAD SWAP1 DUP2 MSTORE RETURN JUMPDEST CALLVALUE PUSH2 0x167 JUMPI PUSH1 0x0 CALLDATASIZE PUSH1 0x3 NOT ADD SLT PUSH2 0x167 JUMPI PUSH1 0x1 SLOAD PUSH1 0x40 MLOAD PUSH1 0x1 PUSH1 0x1 PUSH1 0xA0 SHL SUB SWAP1 SWAP2 AND DUP2 MSTORE PUSH1 0x20 SWAP1 RETURN JUMPDEST CALLVALUE PUSH2 0x167 JUMPI PUSH1 0x0 CALLDATASIZE PUSH1 0x3 NOT ADD SLT PUSH2 0x167 JUMPI PUSH1 0x20 PUSH1 0x2 SLOAD PUSH1 0x40 MLOAD SWAP1 DUP2 MSTORE RETURN JUMPDEST CALLVALUE PUSH2 0x167 JUMPI PUSH1 0x0 CALLDATASIZE PUSH1 0x3 NOT ADD SLT PUSH2 0x167 JUMPI PUSH2 0xFF8 PUSH2 0x209A JUMP JUMPDEST PUSH1 0x1 DUP1 SLOAD PUSH1 0x1 PUSH1 0x1 PUSH1 0xA0 SHL SUB NOT DUP2 AND SWAP1 SWAP2 SSTORE PUSH1 0x0 SWAP1 PUSH1 0x1 PUSH1 0x1 PUSH1 0xA0 SHL SUB AND PUSH32 0x8BE0079C531659141344CD1FD0A4F28419497F9722A3DAAFE3B4186F6B6457E0 DUP3 DUP1 LOG3 STOP JUMPDEST CALLVALUE PUSH2 0x167 JUMPI PUSH1 0x20 DUP1 PUSH1 0x3 NOT CALLDATASIZE ADD SLT PUSH2 0x167 JUMPI PUSH1 0x4 CALLDATALOAD DUP1 ISZERO ISZERO DUP1 PUSH2 0x1209 JUMPI JUMPDEST PUSH2 0x1063 SWAP1 PUSH2 0x2160 JUMP JUMPDEST PUSH2 0x106B PUSH2 0x21B9 JUMP JUMPDEST DUP1 PUSH1 0x0 MSTORE PUSH1 0x5 DUP3 MSTORE PUSH1 0x40 PUSH1 0x0 KECCAK256 PUSH1 0xFF PUSH1 0xA DUP3 ADD SLOAD AND SWAP1 PUSH1 0x5 DUP3 LT ISZERO PUSH2 0x11F3 JUMPI PUSH1 0x3 DUP3 EQ SWAP2 DUP3 ISZERO PUSH2 0x11B8 JUMPI JUMPDEST POP POP ISZERO PUSH2 0x1183 JUMPI DUP1 PUSH1 0x0 MSTORE PUSH1 0x6 DUP3 MSTORE PUSH1 0x40 PUSH1 0x0 KECCAK256 CALLER PUSH1 0x0 MSTORE DUP3 MSTORE PUSH1 0x40 PUSH1 0x0 KECCAK256 SWAP2 DUP3 SLOAD SWAP3 DUP4 ISZERO PUSH2 0x114C JUMPI PUSH1 0x2 ADD DUP1 SLOAD PUSH1 0xFF DUP2 AND PUSH2 0x1115 JUMPI PUSH1 0xFF NOT AND PUSH1 0x1 OR SWAP1 SSTORE PUSH1 0x0 DUP1 DUP1 DUP1 DUP7 CALLER DUP3 CALL ISZERO PUSH2 0xA7B JUMPI PUSH32 0xF3F402280EF0A7905E124AA621B65EAEB2725C343E8B36D398ED78C29DAF285C SWAP1 PUSH1 0x40 MLOAD SWAP4 DUP5 MSTORE CALLER SWAP4 LOG3 PUSH1 0x1 PUSH1 0x0 SSTORE STOP JUMPDEST PUSH1 0x40 MLOAD PUSH3 0x461BCD PUSH1 0xE5 SHL DUP2 MSTORE PUSH1 0x4 DUP2 ADD DUP5 SWAP1 MSTORE PUSH1 0xF PUSH1 0x24 DUP3 ADD MSTORE PUSH15 0x105B1C9958591E4818DB185A5B5959 PUSH1 0x8A SHL PUSH1 0x44 DUP3 ADD MSTORE PUSH1 0x64 SWAP1 REVERT JUMPDEST PUSH1 0x40 MLOAD PUSH3 0x461BCD PUSH1 0xE5 SHL DUP2 MSTORE PUSH1 0x4 DUP2 ADD DUP4 SWAP1 MSTORE PUSH1 0xF PUSH1 0x24 DUP3 ADD MSTORE PUSH15 0x27379031B7B73A3934B13ABA34B7B7 PUSH1 0x89 SHL PUSH1 0x44 DUP3 ADD MSTORE PUSH1 0x64 SWAP1 REVERT JUMPDEST PUSH1 0x40 MLOAD PUSH3 0x461BCD PUSH1 0xE5 SHL DUP2 MSTORE PUSH1 0x4 DUP2 ADD DUP4 SWAP1 MSTORE PUSH1 0xD PUSH1 0x24 DUP3 ADD MSTORE PUSH13 0x10D85B9B9BDD081C99599D5B99 PUSH1 0x9A SHL PUSH1 0x44 DUP3 ADD MSTORE PUSH1 0x64 SWAP1 REVERT JUMPDEST PUSH1 0x1 EQ SWAP2 POP DUP2 PUSH2 0x11E4 JUMPI JUMPDEST DUP2 PUSH2 0x11D1 JUMPI JUMPDEST POP DUP4 DUP1 PUSH2 0x1096 JUMP JUMPDEST SWAP1 POP PUSH1 0x4 PUSH1 0x8 DUP3 ADD SLOAD SWAP2 ADD SLOAD GT DUP4 PUSH2 0x11C9 JUMP JUMPDEST PUSH1 0x7 DUP2 ADD SLOAD TIMESTAMP LT ISZERO SWAP2 POP PUSH2 0x11C3 JUMP JUMPDEST PUSH4 0x4E487B71 PUSH1 0xE0 SHL PUSH1 0x0 MSTORE PUSH1 0x21 PUSH1 0x4 MSTORE PUSH1 0x24 PUSH1 0x0 REVERT JUMPDEST POP PUSH1 0x2 SLOAD DUP2 GT ISZERO PUSH2 0x105A JUMP JUMPDEST CALLVALUE PUSH2 0x167 JUMPI PUSH1 0x20 CALLDATASIZE PUSH1 0x3 NOT ADD SLT PUSH2 0x167 JUMPI PUSH1 0x4 CALLDATALOAD DUP1 ISZERO ISZERO DUP1 PUSH2 0x1334 JUMPI JUMPDEST PUSH2 0x123B SWAP1 PUSH2 0x2160 JUMP JUMPDEST PUSH1 0x0 MSTORE PUSH1 0x5 PUSH1 0x20 MSTORE PUSH1 0x40 PUSH1 0x0 KECCAK256 PUSH1 0x1 PUSH1 0xA0 SHL PUSH1 0x1 SWAP1 SUB DUP2 SLOAD AND PUSH1 0x4 DUP3 ADD SLOAD PUSH1 0x5 DUP4 ADD SLOAD PUSH1 0x6 DUP5 ADD SLOAD PUSH1 0x7 DUP6 ADD SLOAD PUSH1 0x8 DUP7 ADD SLOAD PUSH1 0x9 DUP8 ADD SLOAD SWAP1 PUSH1 0xA DUP9 ADD SLOAD PUSH1 0xFF AND SWAP3 PUSH1 0x7 PUSH1 0x20 MSTORE PUSH1 0x40 PUSH1 0x0 KECCAK256 SLOAD SWAP5 PUSH1 0xE DUP11 ADD SLOAD SWAP7 PUSH1 0x1 DUP12 ADD PUSH2 0x129B SWAP1 PUSH2 0x1EC4 JUMP JUMPDEST SWAP11 PUSH2 0x12A8 PUSH1 0x2 DUP3 ADD PUSH2 0x1EC4 JUMP JUMPDEST SWAP1 PUSH1 0x3 ADD PUSH2 0x12B5 SWAP1 PUSH2 0x1EC4 JUMP JUMPDEST SWAP1 PUSH1 0x40 MLOAD SWAP13 DUP14 SWAP13 DUP14 MSTORE DUP13 PUSH2 0x1A0 PUSH1 0x20 DUP2 SWAP3 ADD MSTORE DUP14 ADD PUSH2 0x12D3 SWAP2 PUSH2 0x1F6A JUMP JUMPDEST DUP13 DUP2 SUB PUSH1 0x40 DUP15 ADD MSTORE PUSH2 0x12E4 SWAP2 PUSH2 0x1F6A JUMP JUMPDEST DUP12 DUP2 SUB PUSH1 0x60 DUP14 ADD MSTORE PUSH2 0x12F5 SWAP2 PUSH2 0x1F6A JUMP JUMPDEST SWAP9 PUSH1 0x80 DUP12 ADD MSTORE PUSH1 0xA0 DUP11 ADD MSTORE PUSH1 0xC0 DUP10 ADD MSTORE PUSH1 0xE0 DUP9 ADD MSTORE PUSH2 0x100 DUP8 ADD MSTORE PUSH2 0x120 DUP7 ADD MSTORE PUSH2 0x140 DUP6 ADD PUSH2 0x1324 SWAP2 PUSH2 0x1FAA JUMP JUMPDEST PUSH2 0x160 DUP5 ADD MSTORE PUSH2 0x180 DUP4 ADD MSTORE SUB SWAP1 RETURN JUMPDEST POP PUSH1 0x2 SLOAD DUP2 GT ISZERO PUSH2 0x1232 JUMP JUMPDEST CALLVALUE PUSH2 0x167 JUMPI PUSH1 0x0 CALLDATASIZE PUSH1 0x3 NOT ADD SLT PUSH2 0x167 JUMPI PUSH1 0x4 SLOAD PUSH1 0x40 MLOAD PUSH1 0x1 PUSH1 0x1 PUSH1 0xA0 SHL SUB SWAP1 SWAP2 AND DUP2 MSTORE PUSH1 0x20 SWAP1 RETURN JUMPDEST CALLVALUE PUSH2 0x167 JUMPI PUSH1 0x20 CALLDATASIZE PUSH1 0x3 NOT ADD SLT PUSH2 0x167 JUMPI PUSH1 0x4 CALLDATALOAD DUP1 ISZERO ISZERO DUP1 PUSH2 0x1448 JUMPI JUMPDEST PUSH2 0x138F SWAP1 PUSH2 0x2160 JUMP JUMPDEST DUP1 PUSH1 0x0 MSTORE PUSH1 0x5 PUSH1 0x20 MSTORE PUSH2 0x13B0 PUSH1 0x1 DUP1 PUSH1 0xA0 SHL SUB PUSH1 0x40 PUSH1 0x0 KECCAK256 SLOAD AND CALLER EQ PUSH2 0x210E JUMP JUMPDEST PUSH1 0x0 MSTORE PUSH1 0x5 PUSH1 0x20 MSTORE PUSH1 0x40 PUSH1 0x0 KECCAK256 PUSH1 0x8 DUP2 ADD SLOAD PUSH2 0x140F JUMPI PUSH1 0x7 DUP2 ADD SLOAD TIMESTAMP LT ISZERO PUSH2 0x13E2 JUMPI PUSH1 0xA ADD DUP1 SLOAD PUSH1 0xFF NOT AND PUSH1 0x4 OR SWAP1 SSTORE STOP JUMPDEST PUSH1 0x40 MLOAD PUSH3 0x461BCD PUSH1 0xE5 SHL DUP2 MSTORE PUSH1 0x20 PUSH1 0x4 DUP3 ADD MSTORE PUSH1 0x5 PUSH1 0x24 DUP3 ADD MSTORE PUSH5 0x115B991959 PUSH1 0xDA SHL PUSH1 0x44 DUP3 ADD MSTORE PUSH1 0x64 SWAP1 REVERT JUMPDEST PUSH1 0x40 MLOAD PUSH3 0x461BCD PUSH1 0xE5 SHL DUP2 MSTORE PUSH1 0x20 PUSH1 0x4 DUP3 ADD MSTORE PUSH1 0x11 PUSH1 0x24 DUP3 ADD MSTORE PUSH17 0x48617320636F6E747269627574696F6E73 PUSH1 0x78 SHL PUSH1 0x44 DUP3 ADD MSTORE PUSH1 0x64 SWAP1 REVERT JUMPDEST POP PUSH1 0x2 SLOAD DUP2 GT ISZERO PUSH2 0x1386 JUMP JUMPDEST CALLVALUE PUSH2 0x167 JUMPI PUSH1 0x20 DUP1 PUSH1 0x3 NOT CALLDATASIZE ADD SLT PUSH2 0x167 JUMPI PUSH1 0x4 CALLDATALOAD DUP1 ISZERO ISZERO DUP1 PUSH2 0x168D JUMPI JUMPDEST PUSH2 0x147B SWAP1 PUSH2 0x2160 JUMP JUMPDEST PUSH1 0x0 MSTORE PUSH1 0x7 DUP2 MSTORE PUSH1 0x40 PUSH1 0x0 KECCAK256 SWAP1 DUP2 SLOAD SWAP2 PUSH2 0x1494 DUP4 PUSH2 0x1FFF JUMP JUMPDEST SWAP2 PUSH2 0x14A2 PUSH1 0x40 MLOAD SWAP4 DUP5 PUSH2 0x1EA3 JUMP JUMPDEST DUP4 DUP4 MSTORE PUSH2 0x14AE DUP5 PUSH2 0x1FFF JUMP JUMPDEST DUP4 DUP3 ADD SWAP5 PUSH1 0x1F NOT SWAP2 DUP3 ADD CALLDATASIZE DUP8 CALLDATACOPY PUSH2 0x14C4 DUP2 PUSH2 0x1FFF JUMP JUMPDEST SWAP2 PUSH2 0x14D2 PUSH1 0x40 MLOAD SWAP4 DUP5 PUSH2 0x1EA3 JUMP JUMPDEST DUP2 DUP4 MSTORE DUP1 PUSH2 0x14DF DUP4 PUSH2 0x1FFF JUMP JUMPDEST ADD PUSH1 0x0 JUMPDEST DUP2 DUP2 LT PUSH2 0x167E JUMPI POP POP PUSH2 0x14F5 DUP3 PUSH2 0x1FFF JUMP JUMPDEST SWAP2 PUSH2 0x1503 PUSH1 0x40 MLOAD SWAP4 DUP5 PUSH2 0x1EA3 JUMP JUMPDEST DUP1 DUP4 MSTORE PUSH2 0x150F DUP2 PUSH2 0x1FFF JUMP JUMPDEST SWAP6 DUP3 DUP7 DUP6 ADD SWAP8 ADD CALLDATASIZE DUP9 CALLDATACOPY PUSH1 0x0 JUMPDEST DUP3 DUP2 LT PUSH2 0x1600 JUMPI POP POP POP PUSH1 0x40 MLOAD SWAP7 DUP8 SWAP7 PUSH1 0x60 DUP9 ADD SWAP1 PUSH1 0x60 DUP10 MSTORE MLOAD DUP1 SWAP2 MSTORE PUSH1 0x80 DUP9 ADD SWAP2 SWAP1 PUSH1 0x0 JUMPDEST DUP2 DUP2 LT PUSH2 0x15E9 JUMPI POP POP POP DUP7 DUP2 SUB DUP6 DUP9 ADD MSTORE DUP4 MLOAD SWAP1 DUP2 DUP2 MSTORE DUP6 DUP2 ADD DUP7 DUP1 DUP5 PUSH1 0x5 SHL DUP5 ADD ADD SWAP7 ADD SWAP4 PUSH1 0x0 SWAP3 JUMPDEST DUP5 DUP5 LT PUSH2 0x15B5 JUMPI POP POP POP POP DUP7 DUP5 SUB PUSH1 0x40 DUP9 ADD MSTORE POP POP MLOAD DUP1 DUP3 MSTORE SWAP1 DUP3 ADD SWAP3 SWAP2 PUSH1 0x0 JUMPDEST DUP3 DUP2 LT PUSH2 0x159C JUMPI POP POP POP POP SUB SWAP1 RETURN JUMPDEST DUP4 MLOAD ISZERO ISZERO DUP6 MSTORE DUP7 SWAP6 POP SWAP4 DUP2 ADD SWAP4 SWAP3 DUP2 ADD SWAP3 PUSH1 0x1 ADD PUSH2 0x158D JUMP JUMPDEST SWAP2 SWAP4 SWAP6 SWAP7 DUP2 SWAP4 SWAP6 SWAP10 SWAP11 POP DUP9 PUSH2 0x15D5 DUP3 PUSH1 0x1 SWAP5 DUP7 DUP5 SWAP6 SUB ADD DUP9 MSTORE DUP13 MLOAD PUSH2 0x1F6A JUMP JUMPDEST SWAP11 ADD SWAP5 ADD SWAP5 ADD SWAP2 DUP11 SWAP10 SWAP9 SWAP7 SWAP6 SWAP4 SWAP5 SWAP2 PUSH2 0x156C JUMP JUMPDEST DUP3 MLOAD DUP5 MSTORE DUP11 SWAP10 POP SWAP3 DUP8 ADD SWAP3 SWAP2 DUP8 ADD SWAP2 PUSH1 0x1 ADD PUSH2 0x1542 JUMP JUMPDEST DUP1 PUSH2 0x1614 PUSH2 0x1673 SWAP3 DUP5 SWAP13 SWAP8 SWAP9 SWAP11 SWAP12 SWAP13 PUSH2 0x1FCD JUMP JUMPDEST POP SLOAD PUSH2 0x1620 DUP3 DUP14 PUSH2 0x214C JUMP JUMPDEST MSTORE PUSH2 0x1637 PUSH1 0x1 PUSH2 0x1630 DUP4 DUP7 PUSH2 0x1FCD JUMP JUMPDEST POP ADD PUSH2 0x1EC4 JUMP JUMPDEST PUSH2 0x1641 DUP3 DUP12 PUSH2 0x214C JUMP JUMPDEST MSTORE PUSH2 0x164C DUP2 DUP11 PUSH2 0x214C JUMP JUMPDEST POP PUSH1 0xFF PUSH1 0x2 PUSH2 0x165B DUP4 DUP7 PUSH2 0x1FCD JUMP JUMPDEST POP ADD SLOAD AND PUSH2 0x1669 DUP3 DUP10 PUSH2 0x214C JUMP JUMPDEST SWAP1 ISZERO ISZERO SWAP1 MSTORE PUSH2 0x20F2 JUMP JUMPDEST SWAP9 SWAP8 SWAP7 SWAP5 SWAP4 SWAP9 PUSH2 0x151C JUMP JUMPDEST PUSH1 0x60 DUP6 DUP3 ADD DUP8 ADD MSTORE DUP6 ADD PUSH2 0x14E3 JUMP JUMPDEST POP PUSH1 0x2 SLOAD DUP2 GT ISZERO PUSH2 0x1472 JUMP JUMPDEST CALLVALUE PUSH2 0x167 JUMPI PUSH1 0x40 CALLDATASIZE PUSH1 0x3 NOT ADD SLT PUSH2 0x167 JUMPI PUSH1 0x24 CALLDATALOAD PUSH1 0x1 PUSH1 0x1 PUSH1 0xA0 SHL SUB DUP2 AND SWAP1 DUP2 SWAP1 SUB PUSH2 0x167 JUMPI PUSH1 0x4 CALLDATALOAD PUSH1 0x0 MSTORE PUSH1 0x6 PUSH1 0x20 MSTORE PUSH1 0x40 PUSH1 0x0 KECCAK256 SWAP1 PUSH1 0x0 MSTORE PUSH1 0x20 MSTORE PUSH1 0x60 PUSH1 0x40 PUSH1 0x0 KECCAK256 DUP1 SLOAD SWAP1 PUSH1 0xFF PUSH1 0x2 PUSH1 0x1 DUP4 ADD SLOAD SWAP3 ADD SLOAD AND SWAP1 PUSH1 0x40 MLOAD SWAP3 DUP4 MSTORE PUSH1 0x20 DUP4 ADD MSTORE ISZERO ISZERO PUSH1 0x40 DUP3 ADD MSTORE RETURN JUMPDEST CALLVALUE PUSH2 0x167 JUMPI PUSH1 0x20 DUP1 PUSH1 0x3 NOT CALLDATASIZE ADD SLT PUSH2 0x167 JUMPI PUSH1 0x4 CALLDATALOAD DUP1 ISZERO ISZERO DUP1 PUSH2 0x17CC JUMPI JUMPDEST PUSH2 0x1729 SWAP1 PUSH2 0x2160 JUMP JUMPDEST PUSH1 0x0 MSTORE PUSH1 0x9 DUP2 MSTORE PUSH1 0x40 PUSH1 0x0 KECCAK256 PUSH1 0x40 MLOAD SWAP1 DUP2 DUP4 DUP3 SLOAD SWAP2 DUP3 DUP2 MSTORE ADD SWAP1 DUP2 SWAP3 PUSH1 0x0 MSTORE DUP5 PUSH1 0x0 KECCAK256 SWAP1 PUSH1 0x0 JUMPDEST DUP7 DUP3 DUP3 LT PUSH2 0x17AF JUMPI DUP7 DUP7 PUSH2 0x1766 DUP3 DUP9 SUB DUP4 PUSH2 0x1EA3 JUMP JUMPDEST PUSH1 0x40 MLOAD SWAP3 DUP4 SWAP3 DUP2 DUP5 ADD SWAP1 DUP3 DUP6 MSTORE MLOAD DUP1 SWAP2 MSTORE PUSH1 0x40 DUP5 ADD SWAP3 SWAP2 PUSH1 0x0 JUMPDEST DUP3 DUP2 LT PUSH2 0x178F JUMPI POP POP POP POP SUB SWAP1 RETURN JUMPDEST DUP4 MLOAD PUSH1 0x1 PUSH1 0x1 PUSH1 0xA0 SHL SUB AND DUP6 MSTORE DUP7 SWAP6 POP SWAP4 DUP2 ADD SWAP4 SWAP3 DUP2 ADD SWAP3 PUSH1 0x1 ADD PUSH2 0x1780 JUMP JUMPDEST DUP4 SLOAD PUSH1 0x1 PUSH1 0x1 PUSH1 0xA0 SHL SUB AND DUP6 MSTORE SWAP1 SWAP4 ADD SWAP3 PUSH1 0x1 SWAP3 DUP4 ADD SWAP3 ADD PUSH2 0x1750 JUMP JUMPDEST POP PUSH1 0x2 SLOAD DUP2 GT ISZERO PUSH2 0x1720 JUMP JUMPDEST CALLVALUE PUSH2 0x167 JUMPI PUSH1 0x60 CALLDATASIZE PUSH1 0x3 NOT ADD SLT PUSH2 0x167 JUMPI PUSH1 0x24 CALLDATALOAD PUSH1 0x1 PUSH1 0x1 PUSH1 0x40 SHL SUB DUP2 GT PUSH2 0x167 JUMPI CALLDATASIZE PUSH1 0x23 DUP3 ADD SLT ISZERO PUSH2 0x167 JUMPI DUP1 PUSH1 0x4 ADD CALLDATALOAD SWAP1 PUSH2 0x1814 DUP3 PUSH2 0x1FFF JUMP JUMPDEST SWAP2 PUSH2 0x1822 PUSH1 0x40 MLOAD SWAP4 DUP5 PUSH2 0x1EA3 JUMP JUMPDEST DUP1 DUP4 MSTORE PUSH1 0x24 PUSH1 0x20 DUP5 ADD SWAP2 PUSH1 0x5 SHL DUP4 ADD ADD SWAP2 CALLDATASIZE DUP4 GT PUSH2 0x167 JUMPI PUSH1 0x24 ADD SWAP1 JUMPDEST DUP3 DUP3 LT PUSH2 0x1C30 JUMPI PUSH1 0x44 CALLDATALOAD DUP5 PUSH1 0x1 PUSH1 0x1 PUSH1 0x40 SHL SUB DUP3 GT PUSH2 0x167 JUMPI CALLDATASIZE PUSH1 0x23 DUP4 ADD SLT ISZERO PUSH2 0x167 JUMPI DUP2 PUSH1 0x4 ADD CALLDATALOAD PUSH2 0x1871 DUP2 PUSH2 0x1FFF JUMP JUMPDEST SWAP3 PUSH2 0x187F PUSH1 0x40 MLOAD SWAP5 DUP6 PUSH2 0x1EA3 JUMP JUMPDEST DUP2 DUP5 MSTORE PUSH1 0x24 PUSH1 0x20 DUP6 ADD SWAP3 PUSH1 0x5 SHL DUP3 ADD ADD SWAP1 CALLDATASIZE DUP3 GT PUSH2 0x167 JUMPI PUSH1 0x24 DUP2 ADD SWAP3 JUMPDEST DUP3 DUP5 LT PUSH2 0x1C01 JUMPI DUP6 DUP6 PUSH1 0x4 CALLDATALOAD PUSH1 0x0 MSTORE PUSH1 0x5 PUSH1 0x20 MSTORE PUSH2 0x18C9 PUSH1 0x1 DUP1 PUSH1 0xA0 SHL SUB PUSH1 0x40 PUSH1 0x0 KECCAK256 SLOAD AND CALLER EQ PUSH2 0x210E JUMP JUMPDEST DUP1 MLOAD DUP3 MLOAD SUB PUSH2 0x1BCA JUMPI DUP1 MLOAD ISZERO PUSH2 0x1B95 JUMPI PUSH1 0x0 SWAP1 DUP2 JUMPDEST DUP2 MLOAD DUP4 LT ISZERO PUSH2 0x1B46 JUMPI PUSH2 0x18FC SWAP1 PUSH2 0x18F5 DUP5 DUP5 PUSH2 0x214C JUMP JUMPDEST MLOAD SWAP1 PUSH2 0x2101 JUMP JUMPDEST SWAP2 PUSH1 0x4 CALLDATALOAD PUSH1 0x0 MSTORE PUSH1 0x7 PUSH1 0x20 MSTORE PUSH1 0x40 PUSH1 0x0 KECCAK256 PUSH2 0x1917 DUP3 DUP5 PUSH2 0x214C JUMP JUMPDEST MLOAD PUSH2 0x1922 DUP4 DUP8 PUSH2 0x214C JUMP JUMPDEST MLOAD SWAP2 PUSH1 0x40 MLOAD SWAP2 PUSH1 0x80 DUP4 ADD DUP4 DUP2 LT PUSH1 0x1 PUSH1 0x1 PUSH1 0x40 SHL SUB DUP3 GT OR PUSH2 0x58F JUMPI PUSH1 0x40 MSTORE DUP3 MSTORE PUSH1 0x20 DUP3 ADD SWAP3 DUP4 MSTORE PUSH1 0x0 PUSH1 0x40 DUP4 ADD MSTORE PUSH1 0x0 PUSH1 0x60 DUP4 ADD MSTORE DUP1 SLOAD PUSH1 0x1 PUSH1 0x40 SHL DUP2 LT ISZERO PUSH2 0x58F JUMPI PUSH2 0x1975 SWAP2 PUSH1 0x1 DUP3 ADD DUP2 SSTORE PUSH2 0x1FCD JUMP JUMPDEST SWAP3 SWAP1 SWAP3 PUSH2 0x1B30 JUMPI DUP2 MLOAD DUP4 SSTORE MLOAD DUP1 MLOAD SWAP1 PUSH1 0x1 PUSH1 0x1 PUSH1 0x40 SHL SUB DUP3 GT PUSH2 0x58F JUMPI PUSH2 0x199F PUSH1 0x1 DUP6 ADD SLOAD PUSH2 0x1E69 JUMP JUMPDEST PUSH1 0x1F DUP2 GT PUSH2 0x1AE9 JUMPI JUMPDEST POP PUSH1 0x20 SWAP1 PUSH1 0x1F DUP4 GT PUSH1 0x1 EQ PUSH2 0x1A70 JUMPI SWAP3 DUP3 PUSH1 0x3 SWAP4 PUSH1 0x60 SWAP4 PUSH2 0x1A5F SWAP9 SWAP8 SWAP7 PUSH1 0x0 SWAP3 PUSH2 0x1A65 JUMPI JUMPDEST POP POP PUSH1 0x0 NOT DUP3 DUP7 SHL SHR NOT AND PUSH1 0x1 SWAP2 DUP3 SHL OR SWAP1 DUP6 ADD SSTORE JUMPDEST PUSH1 0x2 DUP5 ADD PUSH1 0x40 DUP3 ADD MLOAD ISZERO ISZERO PUSH1 0xFF DUP1 NOT DUP4 SLOAD AND SWAP2 AND OR SWAP1 SSTORE ADD MLOAD SWAP2 ADD SSTORE DUP1 PUSH2 0x1A0A DUP2 DUP6 PUSH2 0x214C JUMP JUMPDEST MLOAD PUSH32 0x9A9F4EA7AD47814DD77DEB81FF9C701CB5BCD32342B44C1DE3038300F1C376BC PUSH2 0x1A36 DUP4 DUP10 PUSH2 0x214C JUMP JUMPDEST MLOAD SWAP2 PUSH1 0x40 MLOAD SWAP1 DUP2 MSTORE PUSH1 0x40 PUSH1 0x20 DUP3 ADD MSTORE DUP1 PUSH2 0x1A57 PUSH1 0x4 CALLDATALOAD SWAP5 PUSH1 0x40 DUP4 ADD SWAP1 PUSH2 0x1F6A JUMP JUMPDEST SUB SWAP1 LOG3 PUSH2 0x20F2 JUMP JUMPDEST SWAP2 PUSH2 0x18DE JUMP JUMPDEST ADD MLOAD SWAP1 POP DUP12 DUP1 PUSH2 0x19CD JUMP JUMPDEST SWAP1 PUSH1 0x1 DUP6 ADD PUSH1 0x0 MSTORE PUSH1 0x20 PUSH1 0x0 KECCAK256 SWAP2 PUSH1 0x0 JUMPDEST PUSH1 0x1F NOT DUP6 AND DUP2 LT PUSH2 0x1AD1 JUMPI POP DUP4 PUSH1 0x60 SWAP4 PUSH2 0x1A5F SWAP9 SWAP8 SWAP7 SWAP4 PUSH1 0x1 SWAP4 PUSH1 0x3 SWAP8 PUSH1 0x1F NOT DUP2 AND LT PUSH2 0x1AB9 JUMPI JUMPDEST POP POP POP DUP2 SHL ADD PUSH1 0x1 DUP6 ADD SSTORE PUSH2 0x19E3 JUMP JUMPDEST ADD MLOAD PUSH1 0x0 NOT DUP4 DUP9 SHL PUSH1 0xF8 AND SHR NOT AND SWAP1 SSTORE DUP12 DUP1 DUP1 PUSH2 0x1AA9 JUMP JUMPDEST SWAP2 SWAP3 PUSH1 0x20 PUSH1 0x1 DUP2 SWAP3 DUP7 DUP6 ADD MLOAD DUP2 SSTORE ADD SWAP5 ADD SWAP3 ADD PUSH2 0x1A81 JUMP JUMPDEST PUSH1 0x1 DUP6 ADD PUSH1 0x0 MSTORE PUSH1 0x20 PUSH1 0x0 KECCAK256 PUSH1 0x1F DUP5 ADD PUSH1 0x5 SHR DUP2 ADD PUSH1 0x20 DUP6 LT PUSH2 0x1B29 JUMPI JUMPDEST PUSH1 0x1F DUP4 ADD PUSH1 0x5 SHR DUP3 ADD DUP2 LT PUSH2 0x1B1D JUMPI POP POP PUSH2 0x19A8 JUMP JUMPDEST PUSH1 0x0 DUP2 SSTORE PUSH1 0x1 ADD PUSH2 0x1B07 JUMP JUMPDEST POP DUP1 PUSH2 0x1B07 JUMP JUMPDEST PUSH4 0x4E487B71 PUSH1 0xE0 SHL PUSH1 0x0 MSTORE PUSH1 0x0 PUSH1 0x4 MSTORE PUSH1 0x24 PUSH1 0x0 REVERT JUMPDEST PUSH1 0x4 CALLDATALOAD PUSH1 0x0 MSTORE PUSH1 0x5 PUSH1 0x20 MSTORE PUSH1 0x4 PUSH1 0x40 PUSH1 0x0 KECCAK256 ADD SLOAD LT PUSH2 0x1B61 JUMPI STOP JUMPDEST PUSH1 0x40 MLOAD PUSH3 0x461BCD PUSH1 0xE5 SHL DUP2 MSTORE PUSH1 0x20 PUSH1 0x4 DUP3 ADD MSTORE PUSH1 0xC PUSH1 0x24 DUP3 ADD MSTORE PUSH12 0x115E18D959591CC819DBD85B PUSH1 0xA2 SHL PUSH1 0x44 DUP3 ADD MSTORE PUSH1 0x64 SWAP1 REVERT JUMPDEST PUSH1 0x40 MLOAD PUSH3 0x461BCD PUSH1 0xE5 SHL DUP2 MSTORE PUSH1 0x20 PUSH1 0x4 DUP3 ADD MSTORE PUSH1 0xD PUSH1 0x24 DUP3 ADD MSTORE PUSH13 0x4E6F206D696C6573746F6E6573 PUSH1 0x98 SHL PUSH1 0x44 DUP3 ADD MSTORE PUSH1 0x64 SWAP1 REVERT JUMPDEST PUSH1 0x40 MLOAD PUSH3 0x461BCD PUSH1 0xE5 SHL DUP2 MSTORE PUSH1 0x20 PUSH1 0x4 DUP3 ADD MSTORE PUSH1 0xF PUSH1 0x24 DUP3 ADD MSTORE PUSH15 0x98CADCCEE8D040DAD2E6DAC2E8C6D PUSH1 0x8B SHL PUSH1 0x44 DUP3 ADD MSTORE PUSH1 0x64 SWAP1 REVERT JUMPDEST DUP4 CALLDATALOAD PUSH1 0x1 PUSH1 0x1 PUSH1 0x40 SHL SUB DUP2 GT PUSH2 0x167 JUMPI PUSH1 0x20 SWAP2 PUSH2 0x1C25 DUP4 SWAP3 PUSH1 0x24 CALLDATASIZE SWAP2 DUP8 ADD ADD PUSH2 0x2016 JUMP JUMPDEST DUP2 MSTORE ADD SWAP4 ADD SWAP3 PUSH2 0x189D JUMP JUMPDEST DUP2 CALLDATALOAD DUP2 MSTORE PUSH1 0x20 SWAP2 DUP3 ADD SWAP2 ADD PUSH2 0x183F JUMP JUMPDEST CALLVALUE PUSH2 0x167 JUMPI PUSH1 0x0 CALLDATASIZE PUSH1 0x3 NOT ADD SLT PUSH2 0x167 JUMPI PUSH1 0x20 PUSH1 0x3 SLOAD PUSH1 0x40 MLOAD SWAP1 DUP2 MSTORE RETURN JUMPDEST CALLVALUE PUSH2 0x167 JUMPI PUSH2 0x1C6C CALLDATASIZE PUSH2 0x1FB7 JUMP JUMPDEST SWAP1 PUSH1 0x0 MSTORE PUSH1 0x7 PUSH1 0x20 MSTORE PUSH1 0x40 PUSH1 0x0 KECCAK256 SWAP1 DUP2 SLOAD DUP2 LT ISZERO PUSH2 0x167 JUMPI PUSH2 0x1C8D SWAP2 PUSH2 0x1FCD JUMP JUMPDEST POP DUP1 SLOAD PUSH2 0x1C9C PUSH1 0x1 DUP4 ADD PUSH2 0x1EC4 JUMP JUMPDEST SWAP2 PUSH1 0x3 PUSH1 0xFF PUSH1 0x2 DUP4 ADD SLOAD AND SWAP2 ADD SLOAD PUSH2 0x1CC6 PUSH1 0x40 MLOAD SWAP5 DUP6 SWAP5 DUP6 MSTORE PUSH1 0x80 PUSH1 0x20 DUP7 ADD MSTORE PUSH1 0x80 DUP6 ADD SWAP1 PUSH2 0x1F6A JUMP JUMPDEST SWAP2 ISZERO ISZERO PUSH1 0x40 DUP5 ADD MSTORE PUSH1 0x60 DUP4 ADD MSTORE SUB SWAP1 RETURN JUMPDEST CALLVALUE PUSH2 0x167 JUMPI PUSH1 0x20 CALLDATASIZE PUSH1 0x3 NOT ADD SLT PUSH2 0x167 JUMPI PUSH1 0x4 CALLDATALOAD PUSH1 0x0 SWAP1 DUP2 MSTORE PUSH1 0x5 PUSH1 0x20 MSTORE PUSH1 0x40 SWAP1 KECCAK256 DUP1 SLOAD PUSH1 0x1 PUSH1 0x1 PUSH1 0xA0 SHL SUB SWAP1 DUP2 AND SWAP2 SWAP1 PUSH2 0x1D14 PUSH1 0x1 DUP4 ADD PUSH2 0x1EC4 JUMP JUMPDEST SWAP2 PUSH2 0x1D21 PUSH1 0x2 DUP3 ADD PUSH2 0x1EC4 JUMP JUMPDEST SWAP1 PUSH2 0x1D2E PUSH1 0x3 DUP3 ADD PUSH2 0x1EC4 JUMP JUMPDEST PUSH1 0x4 DUP3 ADD SLOAD SWAP4 PUSH1 0x5 DUP4 ADD SLOAD PUSH1 0x6 DUP5 ADD SLOAD PUSH1 0x7 DUP6 ADD SLOAD PUSH1 0x8 DUP7 ADD SLOAD SWAP1 PUSH1 0x9 DUP8 ADD SLOAD SWAP3 PUSH1 0xA DUP9 ADD SLOAD SWAP5 PUSH1 0xB DUP10 ADD SLOAD SWAP7 PUSH1 0xC DUP11 ADD SLOAD AND SWAP8 PUSH1 0xE DUP11 ADD SLOAD SWAP10 PUSH1 0xF ADD SLOAD SWAP11 PUSH1 0x40 MLOAD SWAP15 DUP16 SWAP15 DUP16 SWAP2 DUP3 MSTORE PUSH2 0x200 DUP1 PUSH1 0x20 DUP5 ADD MSTORE DUP3 ADD PUSH2 0x1D8B SWAP2 PUSH2 0x1F6A JUMP JUMPDEST SWAP1 DUP1 DUP3 SUB SWAP1 PUSH1 0x40 ADD MSTORE PUSH2 0x1D9D SWAP2 PUSH2 0x1F6A JUMP JUMPDEST DUP14 DUP2 SUB PUSH1 0x60 DUP16 ADD MSTORE PUSH2 0x1DAE SWAP2 PUSH2 0x1F6A JUMP JUMPDEST SWAP11 PUSH1 0x80 DUP14 ADD MSTORE PUSH1 0xA0 DUP13 ADD MSTORE PUSH1 0xC0 DUP12 ADD MSTORE PUSH1 0xE0 DUP11 ADD MSTORE PUSH2 0x100 DUP10 ADD MSTORE PUSH2 0x120 DUP9 ADD MSTORE PUSH2 0x140 DUP8 ADD PUSH1 0xFF DUP3 AND SWAP1 PUSH2 0x1DE2 SWAP2 PUSH2 0x1FAA JUMP JUMPDEST PUSH1 0x8 SHR PUSH1 0xFF AND ISZERO ISZERO PUSH2 0x160 DUP8 ADD MSTORE PUSH2 0x180 DUP7 ADD MSTORE PUSH2 0x1A0 DUP6 ADD MSTORE PUSH2 0x1C0 DUP5 ADD MSTORE PUSH2 0x1E0 DUP4 ADD MSTORE SUB SWAP1 RETURN JUMPDEST CALLVALUE PUSH2 0x167 JUMPI PUSH1 0x20 CALLDATASIZE PUSH1 0x3 NOT ADD SLT PUSH2 0x167 JUMPI PUSH1 0x4 CALLDATALOAD PUSH2 0x1E28 PUSH2 0x209A JUMP JUMPDEST PUSH1 0x64 DUP2 GT PUSH2 0x1E35 JUMPI PUSH1 0x3 SSTORE STOP JUMPDEST PUSH1 0x40 MLOAD PUSH3 0x461BCD PUSH1 0xE5 SHL DUP2 MSTORE PUSH1 0x20 PUSH1 0x4 DUP3 ADD MSTORE PUSH1 0xC PUSH1 0x24 DUP3 ADD MSTORE PUSH12 0x8CCACA40E8DEDE40D0D2CED PUSH1 0xA3 SHL PUSH1 0x44 DUP3 ADD MSTORE PUSH1 0x64 SWAP1 REVERT JUMPDEST SWAP1 PUSH1 0x1 DUP3 DUP2 SHR SWAP3 AND DUP1 ISZERO PUSH2 0x1E99 JUMPI JUMPDEST PUSH1 0x20 DUP4 LT EQ PUSH2 0x1E83 JUMPI JUMP JUMPDEST PUSH4 0x4E487B71 PUSH1 0xE0 SHL PUSH1 0x0 MSTORE PUSH1 0x22 PUSH1 0x4 MSTORE PUSH1 0x24 PUSH1 0x0 REVERT JUMPDEST SWAP2 PUSH1 0x7F AND SWAP2 PUSH2 0x1E78 JUMP JUMPDEST SWAP1 PUSH1 0x1F DUP1 NOT SWAP2 ADD AND DUP2 ADD SWAP1 DUP2 LT PUSH1 0x1 PUSH1 0x1 PUSH1 0x40 SHL SUB DUP3 GT OR PUSH2 0x58F JUMPI PUSH1 0x40 MSTORE JUMP JUMPDEST SWAP1 PUSH1 0x40 MLOAD SWAP2 DUP3 PUSH1 0x0 DUP3 SLOAD SWAP3 PUSH2 0x1ED8 DUP5 PUSH2 0x1E69 JUMP JUMPDEST SWAP1 DUP2 DUP5 MSTORE PUSH1 0x1 SWAP5 DUP6 DUP2 AND SWAP1 DUP2 PUSH1 0x0 EQ PUSH2 0x1F47 JUMPI POP PUSH1 0x1 EQ PUSH2 0x1F04 JUMPI JUMPDEST POP POP PUSH2 0x1F02 SWAP3 POP SUB DUP4 PUSH2 0x1EA3 JUMP JUMPDEST JUMP JUMPDEST SWAP1 SWAP4 SWAP2 POP PUSH1 0x0 MSTORE PUSH1 0x20 SWAP1 DUP2 PUSH1 0x0 KECCAK256 SWAP4 PUSH1 0x0 SWAP2 JUMPDEST DUP2 DUP4 LT PUSH2 0x1F2F JUMPI POP POP PUSH2 0x1F02 SWAP4 POP DUP3 ADD ADD CODESIZE DUP1 PUSH2 0x1EF4 JUMP JUMPDEST DUP6 SLOAD DUP9 DUP5 ADD DUP6 ADD MSTORE SWAP5 DUP6 ADD SWAP5 DUP8 SWAP5 POP SWAP2 DUP4 ADD SWAP2 PUSH2 0x1F17 JUMP JUMPDEST SWAP2 POP POP PUSH2 0x1F02 SWAP5 POP PUSH1 0x20 SWAP3 POP PUSH1 0xFF NOT AND DUP3 DUP5 ADD MSTORE ISZERO ISZERO PUSH1 0x5 SHL DUP3 ADD ADD CODESIZE DUP1 PUSH2 0x1EF4 JUMP JUMPDEST SWAP2 SWAP1 DUP3 MLOAD SWAP3 DUP4 DUP3 MSTORE PUSH1 0x0 JUMPDEST DUP5 DUP2 LT PUSH2 0x1F96 JUMPI POP POP DUP3 PUSH1 0x0 PUSH1 0x20 DUP1 SWAP5 SWAP6 DUP5 ADD ADD MSTORE PUSH1 0x1F DUP1 NOT SWAP2 ADD AND ADD ADD SWAP1 JUMP JUMPDEST PUSH1 0x20 DUP2 DUP4 ADD DUP2 ADD MLOAD DUP5 DUP4 ADD DUP3 ADD MSTORE ADD PUSH2 0x1F75 JUMP JUMPDEST SWAP1 PUSH1 0x5 DUP3 LT ISZERO PUSH2 0x11F3 JUMPI MSTORE JUMP JUMPDEST PUSH1 0x40 SWAP1 PUSH1 0x3 NOT ADD SLT PUSH2 0x167 JUMPI PUSH1 0x4 CALLDATALOAD SWAP1 PUSH1 0x24 CALLDATALOAD SWAP1 JUMP JUMPDEST DUP1 SLOAD DUP3 LT ISZERO PUSH2 0x1FE9 JUMPI PUSH1 0x0 MSTORE PUSH1 0x20 PUSH1 0x0 KECCAK256 SWAP1 PUSH1 0x2 SHL ADD SWAP1 PUSH1 0x0 SWAP1 JUMP JUMPDEST PUSH4 0x4E487B71 PUSH1 0xE0 SHL PUSH1 0x0 MSTORE PUSH1 0x32 PUSH1 0x4 MSTORE PUSH1 0x24 PUSH1 0x0 REVERT JUMPDEST PUSH1 0x1 PUSH1 0x1 PUSH1 0x40 SHL SUB DUP2 GT PUSH2 0x58F JUMPI PUSH1 0x5 SHL PUSH1 0x20 ADD SWAP1 JUMP JUMPDEST DUP2 PUSH1 0x1F DUP3 ADD SLT ISZERO PUSH2 0x167 JUMPI DUP1 CALLDATALOAD SWAP1 PUSH1 0x1 PUSH1 0x1 PUSH1 0x40 SHL SUB DUP3 GT PUSH2 0x58F JUMPI PUSH1 0x40 MLOAD SWAP3 PUSH2 0x204A PUSH1 0x1F DUP5 ADD PUSH1 0x1F NOT AND PUSH1 0x20 ADD DUP6 PUSH2 0x1EA3 JUMP JUMPDEST DUP3 DUP5 MSTORE PUSH1 0x20 DUP4 DUP4 ADD ADD GT PUSH2 0x167 JUMPI DUP2 PUSH1 0x0 SWAP3 PUSH1 0x20 DUP1 SWAP4 ADD DUP4 DUP7 ADD CALLDATACOPY DUP4 ADD ADD MSTORE SWAP1 JUMP JUMPDEST PUSH1 0x4 CALLDATALOAD SWAP1 PUSH1 0x1 PUSH1 0x1 PUSH1 0xA0 SHL SUB DUP3 AND DUP3 SUB PUSH2 0x167 JUMPI JUMP JUMPDEST DUP1 SLOAD DUP3 LT ISZERO PUSH2 0x1FE9 JUMPI PUSH1 0x0 MSTORE PUSH1 0x20 PUSH1 0x0 KECCAK256 ADD SWAP1 PUSH1 0x0 SWAP1 JUMP JUMPDEST PUSH1 0x1 SLOAD PUSH1 0x1 PUSH1 0x1 PUSH1 0xA0 SHL SUB AND CALLER SUB PUSH2 0x20AE JUMPI JUMP JUMPDEST PUSH1 0x64 PUSH1 0x40 MLOAD PUSH3 0x461BCD PUSH1 0xE5 SHL DUP2 MSTORE PUSH1 0x20 PUSH1 0x4 DUP3 ADD MSTORE PUSH1 0x20 PUSH1 0x24 DUP3 ADD MSTORE PUSH32 0x4F776E61626C653A2063616C6C6572206973206E6F7420746865206F776E6572 PUSH1 0x44 DUP3 ADD MSTORE REVERT JUMPDEST PUSH1 0x0 NOT DUP2 EQ PUSH2 0x7FF JUMPI PUSH1 0x1 ADD SWAP1 JUMP JUMPDEST SWAP2 SWAP1 DUP3 ADD DUP1 SWAP3 GT PUSH2 0x7FF JUMPI JUMP JUMPDEST ISZERO PUSH2 0x2115 JUMPI JUMP JUMPDEST PUSH1 0x40 MLOAD PUSH3 0x461BCD PUSH1 0xE5 SHL DUP2 MSTORE PUSH1 0x20 PUSH1 0x4 DUP3 ADD MSTORE PUSH1 0xF PUSH1 0x24 DUP3 ADD MSTORE PUSH15 0x2737BA103A34329031B932B0BA37B9 PUSH1 0x89 SHL PUSH1 0x44 DUP3 ADD MSTORE PUSH1 0x64 SWAP1 REVERT JUMPDEST DUP1 MLOAD DUP3 LT ISZERO PUSH2 0x1FE9 JUMPI PUSH1 0x20 SWAP2 PUSH1 0x5 SHL ADD ADD SWAP1 JUMP JUMPDEST ISZERO PUSH2 0x2167 JUMPI JUMP JUMPDEST PUSH1 0x40 MLOAD PUSH3 0x461BCD PUSH1 0xE5 SHL DUP2 MSTORE PUSH1 0x20 PUSH1 0x4 DUP3 ADD MSTORE PUSH1 0x17 PUSH1 0x24 DUP3 ADD MSTORE PUSH32 0x43616D706169676E20646F6573206E6F74206578697374000000000000000000 PUSH1 0x44 DUP3 ADD MSTORE PUSH1 0x64 SWAP1 REVERT JUMPDEST SWAP1 PUSH1 0x4 DUP3 LT ISZERO PUSH2 0x11F3 JUMPI MSTORE JUMP JUMPDEST PUSH1 0x2 PUSH1 0x0 SLOAD EQ PUSH2 0x21CA JUMPI PUSH1 0x2 PUSH1 0x0 SSTORE JUMP JUMPDEST PUSH1 0x40 MLOAD PUSH3 0x461BCD PUSH1 0xE5 SHL DUP2 MSTORE PUSH1 0x20 PUSH1 0x4 DUP3 ADD MSTORE PUSH1 0x1F PUSH1 0x24 DUP3 ADD MSTORE PUSH32 0x5265656E7472616E637947756172643A207265656E7472616E742063616C6C00 PUSH1 0x44 DUP3 ADD MSTORE PUSH1 0x64 SWAP1 REVERT JUMPDEST PUSH8 0x4563918244F40000 DUP2 LT ISZERO PUSH2 0x224E JUMPI PUSH8 0x1BC16D674EC80000 DUP2 LT ISZERO PUSH2 0x2248 JUMPI PUSH8 0x6F05B59D3B20000 GT ISZERO PUSH2 0x2243 JUMPI PUSH1 0x0 SWAP1 JUMP JUMPDEST PUSH1 0x1 SWAP1 JUMP JUMPDEST POP PUSH1 0x2 SWAP1 JUMP JUMPDEST POP PUSH1 0x3 SWAP1 JUMP INVALID LOG2 PUSH5 0x6970667358 0x22 SLT KECCAK256 LOG4 0xD8 SHR PUSH26 0xE00E3F3004FC4EEB43C40FABD74A91D5BBE9B8308C211F65723 0x5E JUMP PUSH5 0x736F6C6343 STOP ADDMOD SGT STOP CALLER "},"methodIdentifiers":{"addMilestones(uint256,uint256[],string[])":"28ae442a","campaignContributors(uint256,uint256)":"ff96de21","campaignCount()":"7274e30d","campaigns(uint256)":"141961bc","cancelCampaign(uint256)":"45598b4a","claimRefund(uint256)":"5b7baf64","contributions(uint256,address)":"3d891f59","createCampaign(string,string,string,uint256,uint256,uint256,uint256,bool,bytes32)":"dfcbf6e8","creatorCampaigns(address,uint256)":"ddc8af61","feeRecipient()":"46904840","fund(uint256,bytes32[])":"b4edfb16","getCampaign(uint256)":"5598f8cc","getContributors(uint256)":"3c1ab00f","getMilestones(uint256)":"42c549c0","milestones(uint256,uint256)":"1c376c63","owner()":"8da5cb5b","platformFee()":"26232a2e","releaseMilestone(uint256,uint256)":"dbaf0910","renounceOwnership()":"715018a6","rewardNFTs(uint256)":"973538ab","setFeeRecipient(address)":"e74b981b","setPlatformFee(uint256)":"12e8e2c3","transferOwnership(address)":"f2fde38b"}},"storageLayout":{"storage":[{"astId":123,"contract":"contracts/Crowdfunding.sol:CrowdfundingPlatform","label":"_status","offset":0,"slot":"0","type":"t_uint256"},{"astId":7,"contract":"contracts/Crowdfunding.sol:CrowdfundingPlatform","label":"_owner","offset":0,"slot":"1","type":"t_address"},{"astId":4093,"contract":"contracts/Crowdfunding.sol:CrowdfundingPlatform","label":"campaignCount","offset":0,"slot":"2","type":"t_uint256"},{"astId":4096,"contract":"contracts/Crowdfunding.sol:CrowdfundingPlatform","label":"platformFee","offset":0,"slot":"3","type":"t_uint256"},{"astId":4098,"contract":"contracts/Crowdfunding.sol:CrowdfundingPlatform","label":"feeRecipient","offset":0,"slot":"4","type":"t_address"},{"astId":4189,"contract":"contracts/Crowdfunding.sol:CrowdfundingPlatform","label":"campaigns","offset":0,"slot":"5","type":"t_mapping(t_uint256,t_struct(Campaign)4146_storage)"},{"astId":4196,"contract":"contracts/Crowdfunding.sol:CrowdfundingPlatform","label":"contributions","offset":0,"slot":"6","type":"t_mapping(t_uint256,t_mapping(t_address,t_struct(Contribution)4153_storage))"},{"astId":4202,"contract":"contracts/Crowdfunding.sol:CrowdfundingPlatform","label":"milestones","offset":0,"slot":"7","type":"t_mapping(t_uint256,t_array(t_struct(Milestone)4162_storage)dyn_storage)"},{"astId":4207,"contract":"contracts/Crowdfunding.sol:CrowdfundingPlatform","label":"rewardNFTs","offset":0,"slot":"8","type":"t_mapping(t_uint256,t_struct(RewardNFT)4184_storage)"},{"astId":4212,"contract":"contracts/Crowdfunding.sol:CrowdfundingPlatform","label":"campaignContributors","offset":0,"slot":"9","type":"t_mapping(t_uint256,t_array(t_address)dyn_storage)"},{"astId":4217,"contract":"contracts/Crowdfunding.sol:CrowdfundingPlatform","label":"creatorCampaigns","offset":0,"slot":"10","type":"t_mapping(t_address,t_array(t_uint256)dyn_storage)"}],"types":{"t_address":{"encoding":"inplace","label":"address","numberOfBytes":"20"},"t_array(t_address)dyn_storage":{"base":"t_address","encoding":"dynamic_array","label":"address[]","numberOfBytes":"32"},"t_array(t_struct(Milestone)4162_storage)dyn_storage":{"base":"t_struct(Milestone)4162_storage","encoding":"dynamic_array","label":"struct CrowdfundingPlatform.Milestone[]","numberOfBytes":"32"},"t_array(t_uint256)dyn_storage":{"base":"t_uint256","encoding":"dynamic_array","label":"uint256[]","numberOfBytes":"32"},"t_bool":{"encoding":"inplace","label":"bool","numberOfBytes":"1"},"t_bytes32":{"encoding":"inplace","label":"bytes32","numberOfBytes":"32"},"t_enum(CampaignState)4104":{"encoding":"inplace","label":"enum CrowdfundingPlatform.CampaignState","numberOfBytes":"1"},"t_mapping(t_address,t_array(t_uint256)dyn_storage)":{"encoding":"mapping","key":"t_address","label":"mapping(address => uint256[])","numberOfBytes":"32","value":"t_array(t_uint256)dyn_storage"},"t_mapping(t_address,t_struct(Contribution)4153_storage)":{"encoding":"mapping","key":"t_address","label":"mapping(address => struct CrowdfundingPlatform.Contribution)","numberOfBytes":"32","value":"t_struct(Contribution)4153_storage"},"t_mapping(t_address,t_uint256)":{"encoding":"mapping","key":"t_address","label":"mapping(address => uint256)","numberOfBytes":"32","value":"t_uint256"},"t_mapping(t_uint256,t_array(t_address)dyn_storage)":{"encoding":"mapping","key":"t_uint256","label":"mapping(uint256 => address[])","numberOfBytes":"32","value":"t_array(t_address)dyn_storage"},"t_mapping(t_uint256,t_array(t_struct(Milestone)4162_storage)dyn_storage)":{"encoding":"mapping","key":"t_uint256","label":"mapping(uint256 => struct CrowdfundingPlatform.Milestone[])","numberOfBytes":"32","value":"t_array(t_struct(Milestone)4162_storage)dyn_storage"},"t_mapping(t_uint256,t_mapping(t_address,t_struct(Contribution)4153_storage))":{"encoding":"mapping","key":"t_uint256","label":"mapping(uint256 => mapping(address => struct CrowdfundingPlatform.Contribution))","numberOfBytes":"32","value":"t_mapping(t_address,t_struct(Contribution)4153_storage)"},"t_mapping(t_uint256,t_struct(Campaign)4146_storage)":{"encoding":"mapping","key":"t_uint256","label":"mapping(uint256 => struct CrowdfundingPlatform.Campaign)","numberOfBytes":"32","value":"t_struct(Campaign)4146_storage"},"t_mapping(t_uint256,t_struct(RewardNFT)4184_storage)":{"encoding":"mapping","key":"t_uint256","label":"mapping(uint256 => struct CrowdfundingPlatform.RewardNFT)","numberOfBytes":"32","value":"t_struct(RewardNFT)4184_storage"},"t_string_storage":{"encoding":"bytes","label":"string","numberOfBytes":"32"},"t_struct(Campaign)4146_storage":{"encoding":"inplace","label":"struct CrowdfundingPlatform.Campaign","members":[{"astId":4111,"contract":"contracts/Crowdfunding.sol:CrowdfundingPlatform","label":"creator","offset":0,"slot":"0","type":"t_address"},{"astId":4113,"contract":"contracts/Crowdfunding.sol:CrowdfundingPlatform","label":"title","offset":0,"slot":"1","type":"t_string_storage"},{"astId":4115,"contract":"contracts/Crowdfunding.sol:CrowdfundingPlatform","label":"description","offset":0,"slot":"2","type":"t_string_storage"},{"astId":4117,"contract":"contracts/Crowdfunding.sol:CrowdfundingPlatform","label":"imageURI","offset":0,"slot":"3","type":"t_string_storage"},{"astId":4119,"contract":"contracts/Crowdfunding.sol:CrowdfundingPlatform","label":"goal","offset":0,"slot":"4","type":"t_uint256"},{"astId":4121,"contract":"contracts/Crowdfunding.sol:CrowdfundingPlatform","label":"minContribution","offset":0,"slot":"5","type":"t_uint256"},{"astId":4123,"contract":"contracts/Crowdfunding.sol:CrowdfundingPlatform","label":"maxContribution","offset":0,"slot":"6","type":"t_uint256"},{"astId":4125,"contract":"contracts/Crowdfunding.sol:CrowdfundingPlatform","label":"deadline","offset":0,"slot":"7","type":"t_uint256"},{"astId":4127,"contract":"contracts/Crowdfunding.sol:CrowdfundingPlatform","label":"amountRaised","offset":0,"slot":"8","type":"t_uint256"},{"astId":4129,"contract":"contracts/Crowdfunding.sol:CrowdfundingPlatform","label":"contributorCount","offset":0,"slot":"9","type":"t_uint256"},{"astId":4132,"contract":"contracts/Crowdfunding.sol:CrowdfundingPlatform","label":"state","offset":0,"slot":"10","type":"t_enum(CampaignState)4104"},{"astId":4134,"contract":"contracts/Crowdfunding.sol:CrowdfundingPlatform","label":"useWhitelist","offset":1,"slot":"10","type":"t_bool"},{"astId":4136,"contract":"contracts/Crowdfunding.sol:CrowdfundingPlatform","label":"merkleRoot","offset":0,"slot":"11","type":"t_bytes32"},{"astId":4138,"contract":"contracts/Crowdfunding.sol:CrowdfundingPlatform","label":"rewardNFT","offset":0,"slot":"12","type":"t_address"},{"astId":4141,"contract":"contracts/Crowdfunding.sol:CrowdfundingPlatform","label":"milestones","offset":0,"slot":"13","type":"t_array(t_uint256)dyn_storage"},{"astId":4143,"contract":"contracts/Crowdfunding.sol:CrowdfundingPlatform","label":"currentMilestone","offset":0,"slot":"14","type":"t_uint256"},{"astId":4145,"contract":"contracts/Crowdfunding.sol:CrowdfundingPlatform","label":"createdAt","offset":0,"slot":"15","type":"t_uint256"}],"numberOfBytes":"512"},"t_struct(Contribution)4153_storage":{"encoding":"inplace","label":"struct CrowdfundingPlatform.Contribution","members":[{"astId":4148,"contract":"contracts/Crowdfunding.sol:CrowdfundingPlatform","label":"amount","offset":0,"slot":"0","type":"t_uint256"},{"astId":4150,"contract":"contracts/Crowdfunding.sol:CrowdfundingPlatform","label":"timestamp","offset":0,"slot":"1","type":"t_uint256"},{"astId":4152,"contract":"contracts/Crowdfunding.sol:CrowdfundingPlatform","label":"claimed","offset":0,"slot":"2","type":"t_bool"}],"numberOfBytes":"96"},"t_struct(Milestone)4162_storage":{"encoding":"inplace","label":"struct CrowdfundingPlatform.Milestone","members":[{"astId":4155,"contract":"contracts/Crowdfunding.sol:CrowdfundingPlatform","label":"amount","offset":0,"slot":"0","type":"t_uint256"},{"astId":4157,"contract":"contracts/Crowdfunding.sol:CrowdfundingPlatform","label":"description","offset":0,"slot":"1","type":"t_string_storage"},{"astId":4159,"contract":"contracts/Crowdfunding.sol:CrowdfundingPlatform","label":"released","offset":0,"slot":"2","type":"t_bool"},{"astId":4161,"contract":"contracts/Crowdfunding.sol:CrowdfundingPlatform","label":"releasedAt","offset":0,"slot":"3","type":"t_uint256"}],"numberOfBytes":"128"},"t_struct(RewardNFT)4184_storage":{"encoding":"inplace","label":"struct CrowdfundingPlatform.RewardNFT","members":[{"astId":4164,"contract":"contracts/Crowdfunding.sol:CrowdfundingPlatform","label":"token","offset":0,"slot":"0","type":"t_address"},{"astId":4167,"contract":"contracts/Crowdfunding.sol:CrowdfundingPlatform","label":"tokenIds","offset":0,"slot":"1","type":"t_array(t_uint256)dyn_storage"},{"astId":4171,"contract":"contracts/Crowdfunding.sol:CrowdfundingPlatform","label":"bronzeIds","offset":0,"slot":"2","type":"t_mapping(t_address,t_uint256)"},{"astId":4175,"contract":"contracts/Crowdfunding.sol:CrowdfundingPlatform","label":"silverIds","offset":0,"slot":"3","type":"t_mapping(t_address,t_uint256)"},{"astId":4179,"contract":"contracts/Crowdfunding.sol:CrowdfundingPlatform","label":"goldIds","offset":0,"slot":"4","type":"t_mapping(t_address,t_uint256)"},{"astId":4183,"contract":"contracts/Crowdfunding.sol:CrowdfundingPlatform","label":"platinumId","offset":0,"slot":"5","type":"t_mapping(t_address,t_uint256)"}],"numberOfBytes":"192"},"t_uint256":{"encoding":"inplace","label":"uint256","numberOfBytes":"32"}}}}}}