{
  "_format": "hh-sol-artifact-1",
  "contractName": "CrowdfundingPlatform",
  "sourceName": "contracts/Crowdfunding.sol",
  "abi": [
    {
      "inputs": [],
      "stateMutability": "nonpayable",
      "type": "constructor"
    },
    {
      "anonymous": false,
      "inputs": [
        {
          "indexed": true,
          "internalType": "uint256",
          "name": "id",
          "type": "uint256"
        },
        {
          "indexed": true,
          "internalType": "address",
          "name": "creator",
          "type": "address"
        },
        {
          "indexed": false,
          "internalType": "string",
          "name": "title",
          "type": "string"
        },
        {
          "indexed": false,
          "internalType": "uint256",
          "name": "goal",
          "type": "uint256"
        },
        {
          "indexed": false,
          "internalType": "uint256",
          "name": "deadline",
          "type": "uint256"
        }
      ],
      "name": "CampaignCreated",
      "type": "event"
    },
    {
      "anonymous": false,
      "inputs": [
        {
          "indexed": true,
          "internalType": "uint256",
          "name": "id",
          "type": "uint256"
        },
        {
          "indexed": true,
          "internalType": "address",
          "name": "contributor",
          "type": "address"
        },
        {
          "indexed": false,
          "internalType": "uint256",
          "name": "amount",
          "type": "uint256"
        },
        {
          "indexed": false,
          "internalType": "enum CrowdfundingPlatform.FundTier",
          "name": "tier",
          "type": "uint8"
        }
      ],
      "name": "Funded",
      "type": "event"
    },
    {
      "anonymous": false,
      "inputs": [
        {
          "indexed": true,
          "internalType": "uint256",
          "name": "campaignId",
          "type": "uint256"
        },
        {
          "indexed": true,
          "internalType": "uint256",
          "name": "milestoneIndex",
          "type": "uint256"
        },
        {
          "indexed": false,
          "internalType": "uint256",
          "name": "amount",
          "type": "uint256"
        },
        {
          "indexed": false,
          "internalType": "string",
          "name": "description",
          "type": "string"
        }
      ],
      "name": "MilestoneCreated",
      "type": "event"
    },
    {
      "anonymous": false,
      "inputs": [
        {
          "indexed": true,
          "internalType": "uint256",
          "name": "campaignId",
          "type": "uint256"
        },
        {
          "indexed": true,
          "internalType": "uint256",
          "name": "milestoneIndex",
          "type": "uint256"
        },
        {
          "indexed": false,
          "internalType": "uint256",
          "name": "amount",
          "type": "uint256"
        }
      ],
      "name": "MilestoneReleased",
      "type": "event"
    },
    {
      "anonymous": false,
      "inputs": [
        {
          "indexed": true,
          "internalType": "uint256",
          "name": "campaignId",
          "type": "uint256"
        },
        {
          "indexed": true,
          "internalType": "address",
          "name": "recipient",
          "type": "address"
        },
        {
          "indexed": false,
          "internalType": "enum CrowdfundingPlatform.FundTier",
          "name": "tier",
          "type": "uint8"
        },
        {
          "indexed": false,
          "internalType": "uint256",
          "name": "tokenId",
          "type": "uint256"
        }
      ],
      "name": "NFTMinted",
      "type": "event"
    },
    {
      "anonymous": false,
      "inputs": [
        {
          "indexed": true,
          "internalType": "address",
          "name": "previousOwner",
          "type": "address"
        },
        {
          "indexed": true,
          "internalType": "address",
          "name": "newOwner",
          "type": "address"
        }
      ],
      "name": "OwnershipTransferred",
      "type": "event"
    },
    {
      "anonymous": false,
      "inputs": [
        {
          "indexed": true,
          "internalType": "uint256",
          "name": "id",
          "type": "uint256"
        },
        {
          "indexed": true,
          "internalType": "address",
          "name": "contributor",
          "type": "address"
        },
        {
          "indexed": false,
          "internalType": "uint256",
          "name": "amount",
          "type": "uint256"
        }
      ],
      "name": "RefundClaimed",
      "type": "event"
    },
    {
      "inputs": [
        {
          "internalType": "uint256",
          "name": "_id",
          "type": "uint256"
        },
        {
          "internalType": "uint256[]",
          "name": "_amounts",
          "type": "uint256[]"
        },
        {
          "internalType": "string[]",
          "name": "_descriptions",
          "type": "string[]"
        }
      ],
      "name": "addMilestones",
      "outputs": [],
      "stateMutability": "nonpayable",
      "type": "function"
    },
    {
      "inputs": [
        {
          "internalType": "uint256",
          "name": "",
          "type": "uint256"
        },
        {
          "internalType": "uint256",
          "name": "",
          "type": "uint256"
        }
      ],
      "name": "campaignContributors",
      "outputs": [
        {
          "internalType": "address",
          "name": "",
          "type": "address"
        }
      ],
      "stateMutability": "view",
      "type": "function"
    },
    {
      "inputs": [],
      "name": "campaignCount",
      "outputs": [
        {
          "internalType": "uint256",
          "name": "",
          "type": "uint256"
        }
      ],
      "stateMutability": "view",
      "type": "function"
    },
    {
      "inputs": [
        {
          "internalType": "uint256",
          "name": "",
          "type": "uint256"
        }
      ],
      "name": "campaigns",
      "outputs": [
        {
          "internalType": "address",
          "name": "creator",
          "type": "address"
        },
        {
          "internalType": "string",
          "name": "title",
          "type": "string"
        },
        {
          "internalType": "string",
          "name": "description",
          "type": "string"
        },
        {
          "internalType": "string",
          "name": "imageURI",
          "type": "string"
        },
        {
          "internalType": "uint256",
          "name": "goal",
          "type": "uint256"
        },
        {
          "internalType": "uint256",
          "name": "minContribution",
          "type": "uint256"
        },
        {
          "internalType": "uint256",
          "name": "maxContribution",
          "type": "uint256"
        },
        {
          "internalType": "uint256",
          "name": "deadline",
          "type": "uint256"
        },
        {
          "internalType": "uint256",
          "name": "amountRaised",
          "type": "uint256"
        },
        {
          "internalType": "uint256",
          "name": "contributorCount",
          "type": "uint256"
        },
        {
          "internalType": "enum CrowdfundingPlatform.CampaignState",
          "name": "state",
          "type": "uint8"
        },
        {
          "internalType": "bool",
          "name": "useWhitelist",
          "type": "bool"
        },
        {
          "internalType": "bytes32",
          "name": "merkleRoot",
          "type": "bytes32"
        },
        {
          "internalType": "address",
          "name": "rewardNFT",
          "type": "address"
        },
        {
          "internalType": "uint256",
          "name": "currentMilestone",
          "type": "uint256"
        },
        {
          "internalType": "uint256",
          "name": "createdAt",
          "type": "uint256"
        }
      ],
      "stateMutability": "view",
      "type": "function"
    },
    {
      "inputs": [
        {
          "internalType": "uint256",
          "name": "_id",
          "type": "uint256"
        }
      ],
      "name": "cancelCampaign",
      "outputs": [],
      "stateMutability": "nonpayable",
      "type": "function"
    },
    {
      "inputs": [
        {
          "internalType": "uint256",
          "name": "_id",
          "type": "uint256"
        }
      ],
      "name": "claimRefund",
      "outputs": [],
      "stateMutability": "nonpayable",
      "type": "function"
    },
    {
      "inputs": [
        {
          "internalType": "uint256",
          "name": "",
          "type": "uint256"
        },
        {
          "internalType": "address",
          "name": "",
          "type": "address"
        }
      ],
      "name": "contributions",
      "outputs": [
        {
          "internalType": "uint256",
          "name": "amount",
          "type": "uint256"
        },
        {
          "internalType": "uint256",
          "name": "timestamp",
          "type": "uint256"
        },
        {
          "internalType": "bool",
          "name": "claimed",
          "type": "bool"
        }
      ],
      "stateMutability": "view",
      "type": "function"
    },
    {
      "inputs": [
        {
          "internalType": "string",
          "name": "_title",
          "type": "string"
        },
        {
          "internalType": "string",
          "name": "_description",
          "type": "string"
        },
        {
          "internalType": "string",
          "name": "_imageURI",
          "type": "string"
        },
        {
          "internalType": "uint256",
          "name": "_goal",
          "type": "uint256"
        },
        {
          "internalType": "uint256",
          "name": "_minContribution",
          "type": "uint256"
        },
        {
          "internalType": "uint256",
          "name": "_maxContribution",
          "type": "uint256"
        },
        {
          "internalType": "uint256",
          "name": "_durationInDays",
          "type": "uint256"
        },
        {
          "internalType": "bool",
          "name": "_useWhitelist",
          "type": "bool"
        },
        {
          "internalType": "bytes32",
          "name": "_merkleRoot",
          "type": "bytes32"
        }
      ],
      "name": "createCampaign",
      "outputs": [
        {
          "internalType": "uint256",
          "name": "",
          "type": "uint256"
        }
      ],
      "stateMutability": "nonpayable",
      "type": "function"
    },
    {
      "inputs": [
        {
          "internalType": "address",
          "name": "",
          "type": "address"
        },
        {
          "internalType": "uint256",
          "name": "",
          "type": "uint256"
        }
      ],
      "name": "creatorCampaigns",
      "outputs": [
        {
          "internalType": "uint256",
          "name": "",
          "type": "uint256"
        }
      ],
      "stateMutability": "view",
      "type": "function"
    },
    {
      "inputs": [],
      "name": "feeRecipient",
      "outputs": [
        {
          "internalType": "address",
          "name": "",
          "type": "address"
        }
      ],
      "stateMutability": "view",
      "type": "function"
    },
    {
      "inputs": [
        {
          "internalType": "uint256",
          "name": "_id",
          "type": "uint256"
        },
        {
          "internalType": "bytes32[]",
          "name": "_merkleProof",
          "type": "bytes32[]"
        }
      ],
      "name": "fund",
      "outputs": [],
      "stateMutability": "payable",
      "type": "function"
    },
    {
      "inputs": [
        {
          "internalType": "uint256",
          "name": "_id",
          "type": "uint256"
        }
      ],
      "name": "getCampaign",
      "outputs": [
        {
          "internalType": "address",
          "name": "creator",
          "type": "address"
        },
        {
          "internalType": "string",
          "name": "title",
          "type": "string"
        },
        {
          "internalType": "string",
          "name": "description",
          "type": "string"
        },
        {
          "internalType": "string",
          "name": "imageURI",
          "type": "string"
        },
        {
          "internalType": "uint256",
          "name": "goal",
          "type": "uint256"
        },
        {
          "internalType": "uint256",
          "name": "minContribution",
          "type": "uint256"
        },
        {
          "internalType": "uint256",
          "name": "maxContribution",
          "type": "uint256"
        },
        {
          "internalType": "uint256",
          "name": "deadline",
          "type": "uint256"
        },
        {
          "internalType": "uint256",
          "name": "amountRaised",
          "type": "uint256"
        },
        {
          "internalType": "uint256",
          "name": "contributorCount",
          "type": "uint256"
        },
        {
          "internalType": "enum CrowdfundingPlatform.CampaignState",
          "name": "state",
          "type": "uint8"
        },
        {
          "internalType": "uint256",
          "name": "milestoneCount",
          "type": "uint256"
        },
        {
          "internalType": "uint256",
          "name": "currentMilestone",
          "type": "uint256"
        }
      ],
      "stateMutability": "view",
      "type": "function"
    },
    {
      "inputs": [
        {
          "internalType": "uint256",
          "name": "_id",
          "type": "uint256"
        }
      ],
      "name": "getContributors",
      "outputs": [
        {
          "internalType": "address[]",
          "name": "",
          "type": "address[]"
        }
      ],
      "stateMutability": "view",
      "type": "function"
    },
    {
      "inputs": [
        {
          "internalType": "uint256",
          "name": "_id",
          "type": "uint256"
        }
      ],
      "name": "getMilestones",
      "outputs": [
        {
          "internalType": "uint256[]",
          "name": "amounts",
          "type": "uint256[]"
        },
        {
          "internalType": "string[]",
          "name": "descriptions",
          "type": "string[]"
        },
        {
          "internalType": "bool[]",
          "name": "released",
          "type": "bool[]"
        }
      ],
      "stateMutability": "view",
      "type": "function"
    },
    {
      "inputs": [
        {
          "internalType": "uint256",
          "name": "",
          "type": "uint256"
        },
        {
          "internalType": "uint256",
          "name": "",
          "type": "uint256"
        }
      ],
      "name": "milestones",
      "outputs": [
        {
          "internalType": "uint256",
          "name": "amount",
          "type": "uint256"
        },
        {
          "internalType": "string",
          "name": "description",
          "type": "string"
        },
        {
          "internalType": "bool",
          "name": "released",
          "type": "bool"
        },
        {
          "internalType": "uint256",
          "name": "releasedAt",
          "type": "uint256"
        }
      ],
      "stateMutability": "view",
      "type": "function"
    },
    {
      "inputs": [],
      "name": "owner",
      "outputs": [
        {
          "internalType": "address",
          "name": "",
          "type": "address"
        }
      ],
      "stateMutability": "view",
      "type": "function"
    },
    {
      "inputs": [],
      "name": "platformFee",
      "outputs": [
        {
          "internalType": "uint256",
          "name": "",
          "type": "uint256"
        }
      ],
      "stateMutability": "view",
      "type": "function"
    },
    {
      "inputs": [
        {
          "internalType": "uint256",
          "name": "_id",
          "type": "uint256"
        },
        {
          "internalType": "uint256",
          "name": "_milestoneIndex",
          "type": "uint256"
        }
      ],
      "name": "releaseMilestone",
      "outputs": [],
      "stateMutability": "nonpayable",
      "type": "function"
    },
    {
      "inputs": [],
      "name": "renounceOwnership",
      "outputs": [],
      "stateMutability": "nonpayable",
      "type": "function"
    },
    {
      "inputs": [
        {
          "internalType": "uint256",
          "name": "",
          "type": "uint256"
        }
      ],
      "name": "rewardNFTs",
      "outputs": [
        {
          "internalType": "address",
          "name": "token",
          "type": "address"
        }
      ],
      "stateMutability": "view",
      "type": "function"
    },
    {
      "inputs": [
        {
          "internalType": "address",
          "name": "_recipient",
          "type": "address"
        }
      ],
      "name": "setFeeRecipient",
      "outputs": [],
      "stateMutability": "nonpayable",
      "type": "function"
    },
    {
      "inputs": [
        {
          "internalType": "uint256",
          "name": "_fee",
          "type": "uint256"
        }
      ],
      "name": "setPlatformFee",
      "outputs": [],
      "stateMutability": "nonpayable",
      "type": "function"
    },
    {
      "inputs": [
        {
          "internalType": "address",
          "name": "newOwner",
          "type": "address"
        }
      ],
      "name": "transferOwnership",
      "outputs": [],
      "stateMutability": "nonpayable",
      "type": "function"
    },
    {
      "stateMutability": "payable",
      "type": "receive"
    }
  ],
  "bytecode": "0x6080806040523461007157600160008181558154336001600160a01b03198083168217909455916001600160a01b03909116907f8be0079c531659141344cd1fd0a4f28419497f9722a3daafe3b4186f6b6457e09080a360196003553390600454161760045561228a90816100778239f35b600080fdfe6080604052600436101561001b575b361561001957600080fd5b005b60003560e01c806312e8e2c314611e0c578063141961bc14611cd75780631c376c6314611c5e57806326232a2e14611c4057806328ae442a146117d85780633c1ab00f146117025780633d891f591461169957806342c549c01461145457806345598b4a1461136957806346904840146113405780635598f8cc146112155780635b7baf641461103c578063715018a614610fdf5780637274e30d14610fc15780638da5cb5b14610f98578063973538ab14610f64578063b4edfb1614610b10578063dbaf09101461092e578063ddc8af61146108d6578063dfcbf6e8146102af578063e74b981b14610230578063f2fde38b1461016c5763ff96de210361000e57346101675761012b36611fb7565b906000526009602052604060002080548210156101675760209161014e91612082565b905460405160039290921b1c6001600160a01b03168152f35b600080fd5b346101675760203660031901126101675761018561206c565b61018d61209a565b6001600160a01b039081169081156101dc57600154826001600160601b0360a01b821617600155167f8be0079c531659141344cd1fd0a4f28419497f9722a3daafe3b4186f6b6457e0600080a3005b60405162461bcd60e51b815260206004820152602660248201527f4f776e61626c653a206e6577206f776e657220697320746865207a65726f206160448201526564647265737360d01b6064820152608490fd5b346101675760203660031901126101675761024961206c565b61025161209a565b6001600160a01b03168015610278576001600160601b0360a01b6004541617600455600080f35b60405162461bcd60e51b815260206004820152600f60248201526e496e76616c6964206164647265737360881b6044820152606490fd5b3461016757610120366003190112610167576004356001600160401b038111610167576102e0903690600401612016565b6024356001600160401b038111610167576102ff903690600401612016565b906044356001600160401b0381116101675761031f903690600401612016565b9160c4359260e435908115158203610167576064351561089e5760a435608435116108595784159485158061084d575b156108155761035f6002546120f2565b9586600255620151808083029283041417156107ff5761037f9042612101565b946000526005602052604060002092336001600160601b0360a01b85541617845584516001600160401b03811161058f576103bd6001860154611e69565b601f81116107b8575b50806020601f821160011461074b57600091610740575b508160011b916000199060031b1c19161760018501555b8051906001600160401b03821161058f5781906104146002870154611e69565b601f81116106ed575b50602090601f831160011461067b57600092610670575b50508160011b916000199060031b1c19161760028401555b8051906001600160401b03821161058f57819061046c6003860154611e69565b601f811161061d575b50602090601f83116001146105b0576000926105a5575b50508160011b916000199060031b1c19161760038301555b6064356004830155608435600583015560a43560068301558360078301556001600a83019161ff00835491151560081b169061ffff19161717905561010435600b820155600f4291015533600052600a60205260406000209160025491835492600160401b84101561058f576105438460209660017fdc26653af5b99b2da33e2ad69ee6600d9aeccc82b034501db4338309615ca23897018155612082565b819291549060031b91821b91600019901b191617905560025492839161057460405191606083526060830190611f6a565b936064358783015260408201528033940390a3604051908152f35b634e487b7160e01b600052604160045260246000fd5b01519050868061048c565b600386016000908152602081209350601f198516905b81811061060557509084600195949392106105ec575b505050811b0160038301556104a4565b015160001960f88460031b161c191690558680806105dc565b929360206001819287860151815501950193016105c6565b909150600385016000526020600020601f840160051c810160208510610669575b90849392915b601f830160051c8201811061065a575050610475565b60008155859450600101610644565b508061063e565b015190508780610434565b9250600286016000526020600020906000935b601f19841685106106d2576001945083601f198116106106b9575b505050811b01600284015561044c565b015160001960f88460031b161c191690558780806106a9565b8181015183556020948501946001909301929091019061068e565b909150600286016000526020600020601f840160051c810160208510610739575b90849392915b601f830160051c8201811061072a57505061041d565b60008155859450600101610714565b508061070e565b9050860151886103dd565b91506001860160005260206000206000925b601f19831684106107a0576001935082601f19811610610787575b5050811b0160018501556103f4565b88015160001960f88460031b161c191690558880610778565b8881015182556020938401936001909201910161075d565b600186016000526020600020601f830160051c8101602084106107f8575b601f830160051c820181106107ec5750506103c6565b600081556001016107d6565b50806107d6565b634e487b7160e01b600052601160045260246000fd5b60405162461bcd60e51b815260206004820152601060248201526f24b73b30b634b210323ab930ba34b7b760811b6044820152606490fd5b5061016d81111561034f565b60405162461bcd60e51b815260206004820152601a60248201527f496e76616c696420636f6e747269627574696f6e2072616e67650000000000006044820152606490fd5b60405162461bcd60e51b815260206004820152601060248201526f0476f616c206d757374206265203e20360841b6044820152606490fd5b34610167576040366003190112610167576108ef61206c565b6001600160a01b03166000908152600a60205260409020805460243591908210156101675760209161092091612082565b90546040519160031b1c8152f35b346101675761093c36611fb7565b9080151580610b04575b61094f90612160565b8060005260206005815260018060a01b03906109738260406000205416331461210e565b8260005260058152604060002060078252610992856040600020611fcd565b5092600284019182549160ff8316610acc57600e82019586548911610a9957805494600160ff198096161790556003429101556003548085029085820414851517156107ff576103e8900490818503948086116107ff5760008080888194868954169088849114610a90575bf115610a7b576000808093819360045416828215610a87575bf115610a7b5784610a497fd33fcd27cbfb73a2d9058c968b560ccb306500bf536133802048489ecc7355e996546120f2565b9055600881015460048201541115610a67575b5050604051908152a3005b600a60029101918254161790558580610a5c565b6040513d6000823e3d90fd5b506108fc610a17565b506108fc6109fe565b60405162461bcd60e51b815260048101879052600b60248201526a4e6f74207965742064756560a81b6044820152606490fd5b60405162461bcd60e51b815260048101869052601060248201526f105b1c9958591e481c995b19585cd95960821b6044820152606490fd5b50600254811115610946565b6040366003190112610167576001600160401b03602480359060043590838311610167573660238401121561016757826004013590610b4e82611fff565b610b5b6040519182611ea3565b82815260209485820183600595861b830101913683116101675784889101915b838310610f54575050505083151580610f48575b610b9890612160565b8360005282855260ff600a60406000200154169583871015610f33576001809703610ef95784600052838652600760406000200154421015610ec457610bdc6121b9565b846000528386526040600020938401543410610e905760068401543411610e5a5760ff600a85015460081c16610d76575b50508260005260068452604060002033600052845260406000205415610d01575b50600890826000526006845260406000203360005284526040600020610c55348254612101565b90558260005260068452604060002033600052845242856040600020015501610c7f348254612101565b9055610cd6610c8d3461220f565b604051610c9a81836121ac565b600085820152837f36e6128baeed350fad1fe2025296738800de854a1bb3b9330a125e05853c527860403393a3604051933485528401906121ac565b7f1c3831a561dc13bde98e2ad97d9193c9d5e532e1e556bea999f53233bf72d8f660403393a3600055005b60098201610d0f81546120f2565b905582600052600984526040600020805491600160401b831015610d62575081610d40918760089594018155612082565b81546001600160a01b0360039290921b91821b19163390911b17905590610c2e565b634e487b7160e01b60009081526041600452fd5b604051868101913360601b835260148252604082019082821090821117610e4557604052519020600b84015491600090885b610df0575b505003610dbb578580610c0d565b83600f6064926040519262461bcd60e51b845260048401528201526e139bdd081dda1a5d195b1a5cdd1959608a1b6044820152fd5b90918151831015610e3f57610e05838361214c565b519081811015610e2b57600052875287610e2460406000205b936120f2565b9190610da8565b90600052875287610e246040600020610e1e565b91610dad565b84634e487b7160e01b60005260416004526000fd5b60405162461bcd60e51b815260048101879052600f818501526e45786365656473206d6178696d756d60881b6044820152606490fd5b60405162461bcd60e51b815260048101879052600d818501526c42656c6f77206d696e696d756d60981b6044820152606490fd5b60405162461bcd60e51b815260048101879052600e818501526d10d85b5c185a59db88195b99195960921b6044820152606490fd5b60405162461bcd60e51b8152600481018790526013818501527243616d706169676e206e6f742061637469766560681b6044820152606490fd5b82634e487b7160e01b60005260216004526000fd5b50600254841115610b8f565b8235815291810191889101610b7b565b34610167576020366003190112610167576004356000526008602052602060018060a01b0360406000205416604051908152f35b34610167576000366003190112610167576001546040516001600160a01b039091168152602090f35b34610167576000366003190112610167576020600254604051908152f35b3461016757600036600319011261016757610ff861209a565b600180546001600160a01b031981169091556000906001600160a01b03167f8be0079c531659141344cd1fd0a4f28419497f9722a3daafe3b4186f6b6457e08280a3005b34610167576020806003193601126101675760043580151580611209575b61106390612160565b61106b6121b9565b8060005260058252604060002060ff600a820154169060058210156111f357600382149182156111b8575b5050156111835780600052600682526040600020336000528252604060002091825492831561114c57600201805460ff81166111155760ff191660011790556000808080863382f115610a7b577ff3f402280ef0a7905e124aa621b65eaeb2725c343e8b36d398ed78c29daf285c906040519384523393a36001600055005b60405162461bcd60e51b815260048101849052600f60248201526e105b1c9958591e4818db185a5b5959608a1b6044820152606490fd5b60405162461bcd60e51b815260048101839052600f60248201526e27379031b7b73a3934b13aba34b7b760891b6044820152606490fd5b60405162461bcd60e51b815260048101839052600d60248201526c10d85b9b9bdd081c99599d5b99609a1b6044820152606490fd5b6001149150816111e4575b816111d1575b508380611096565b90506004600882015491015411836111c9565b600781015442101591506111c3565b634e487b7160e01b600052602160045260246000fd5b5060025481111561105a565b346101675760203660031901126101675760043580151580611334575b61123b90612160565b60005260056020526040600020600160a01b6001900381541660048201546005830154600684015460078501546008860154600987015490600a88015460ff1692600760205260406000205494600e8a01549660018b0161129b90611ec4565b9a6112a860028201611ec4565b906003016112b590611ec4565b906040519c8d9c8d528c6101a06020819201528d016112d391611f6a565b8c810360408e01526112e491611f6a565b8b810360608d01526112f591611f6a565b9860808b015260a08a015260c089015260e0880152610100870152610120860152610140850161132491611faa565b6101608401526101808301520390f35b50600254811115611232565b34610167576000366003190112610167576004546040516001600160a01b039091168152602090f35b346101675760203660031901126101675760043580151580611448575b61138f90612160565b8060005260056020526113b060018060a01b0360406000205416331461210e565b60005260056020526040600020600881015461140f5760078101544210156113e257600a01805460ff19166004179055005b60405162461bcd60e51b8152602060048201526005602482015264115b99195960da1b6044820152606490fd5b60405162461bcd60e51b815260206004820152601160248201527048617320636f6e747269627574696f6e7360781b6044820152606490fd5b50600254811115611386565b3461016757602080600319360112610167576004358015158061168d575b61147b90612160565b6000526007815260406000209081549161149483611fff565b916114a26040519384611ea3565b8383526114ae84611fff565b83820194601f199182013687376114c481611fff565b916114d26040519384611ea3565b818352806114df83611fff565b0160005b81811061167e5750506114f582611fff565b916115036040519384611ea3565b80835261150f81611fff565b9582868501970136883760005b828110611600575050506040519687966060880190606089525180915260808801919060005b8181106115e9575050508681038588015283519081815285810186808460051b8401019601936000925b8484106115b557505050508684036040880152505051808252908201929160005b82811061159c57505050500390f35b835115158552869550938101939281019260010161158d565b91939596819395999a50886115d582600194868495030188528c51611f6a565b9a0194019401918a9998969593949161156c565b825184528a99509287019291870191600101611542565b8061161461167392849c97989a9b9c611fcd565b5054611620828d61214c565b5261163760016116308386611fcd565b5001611ec4565b611641828b61214c565b5261164c818a61214c565b5060ff600261165b8386611fcd565b50015416611669828961214c565b90151590526120f2565b98979694939861151c565b606085820187015285016114e3565b50600254811115611472565b34610167576040366003190112610167576024356001600160a01b038116908190036101675760043560005260066020526040600020906000526020526060604060002080549060ff600260018301549201541690604051928352602083015215156040820152f35b346101675760208060031936011261016757600435801515806117cc575b61172990612160565b60005260098152604060002060405190818382549182815201908192600052846000209060005b868282106117af57868661176682880383611ea3565b604051928392818401908285525180915260408401929160005b82811061178f57505050500390f35b83516001600160a01b031685528695509381019392810192600101611780565b83546001600160a01b031685529093019260019283019201611750565b50600254811115611720565b34610167576060366003190112610167576024356001600160401b03811161016757366023820112156101675780600401359061181482611fff565b916118226040519384611ea3565b8083526024602084019160051b8301019136831161016757602401905b828210611c3057604435846001600160401b038211610167573660238301121561016757816004013561187181611fff565b9261187f6040519485611ea3565b8184526024602085019260051b820101903682116101675760248101925b828410611c0157858560043560005260056020526118c960018060a01b0360406000205416331461210e565b8051825103611bca57805115611b9557600090815b8151831015611b46576118fc906118f5848461214c565b5190612101565b9160043560005260076020526040600020611917828461214c565b51611922838761214c565b519160405191608083018381106001600160401b0382111761058f5760405282526020820192835260006040830152600060608301528054600160401b81101561058f5761197591600182018155611fcd565b929092611b305781518355518051906001600160401b03821161058f5761199f6001850154611e69565b601f8111611ae9575b50602090601f8311600114611a70579282600393606093611a5f989796600092611a65575b505060001982861b1c1916600191821b17908501555b600284016040820151151560ff80198354169116179055015191015580611a0a818561214c565b517f9a9f4ea7ad47814dd77deb81ff9c701cb5bcd32342b44c1de3038300f1c376bc611a36838961214c565b51916040519081526040602082015280611a57600435946040830190611f6a565b0390a36120f2565b916118de565b015190508b806119cd565b906001850160005260206000209160005b601f1985168110611ad1575083606093611a5f98979693600193600397601f19811610611ab9575b505050811b0160018501556119e3565b015160001983881b60f8161c191690558b8080611aa9565b91926020600181928685015181550194019201611a81565b600185016000526020600020601f840160051c810160208510611b29575b601f830160051c82018110611b1d5750506119a8565b60008155600101611b07565b5080611b07565b634e487b7160e01b600052600060045260246000fd5b600435600052600560205260046040600020015410611b6157005b60405162461bcd60e51b815260206004820152600c60248201526b115e18d959591cc819dbd85b60a21b6044820152606490fd5b60405162461bcd60e51b815260206004820152600d60248201526c4e6f206d696c6573746f6e657360981b6044820152606490fd5b60405162461bcd60e51b815260206004820152600f60248201526e098cadccee8d040dad2e6dac2e8c6d608b1b6044820152606490fd5b83356001600160401b03811161016757602091611c25839260243691870101612016565b81520193019261189d565b813581526020918201910161183f565b34610167576000366003190112610167576020600354604051908152f35b3461016757611c6c36611fb7565b906000526007602052604060002090815481101561016757611c8d91611fcd565b508054611c9c60018301611ec4565b91600360ff600283015416910154611cc66040519485948552608060208601526080850190611f6a565b911515604084015260608301520390f35b3461016757602036600319011261016757600435600090815260056020526040902080546001600160a01b039081169190611d1460018301611ec4565b91611d2160028201611ec4565b90611d2e60038201611ec4565b600482015493600583015460068401546007850154600886015490600987015492600a88015494600b89015496600c8a01541697600e8a015499600f01549a6040519e8f9e8f9182526102008060208401528201611d8b91611f6a565b908082039060400152611d9d91611f6a565b8d810360608f0152611dae91611f6a565b9a60808d015260a08c015260c08b015260e08a0152610100890152610120880152610140870160ff821690611de291611faa565b60081c60ff1615156101608701526101808601526101a08501526101c08401526101e08301520390f35b3461016757602036600319011261016757600435611e2861209a565b60648111611e3557600355005b60405162461bcd60e51b815260206004820152600c60248201526b08ccaca40e8dede40d0d2ced60a31b6044820152606490fd5b90600182811c92168015611e99575b6020831014611e8357565b634e487b7160e01b600052602260045260246000fd5b91607f1691611e78565b90601f801991011681019081106001600160401b0382111761058f57604052565b9060405191826000825492611ed884611e69565b908184526001948581169081600014611f475750600114611f04575b5050611f0292500383611ea3565b565b9093915060005260209081600020936000915b818310611f2f575050611f0293508201013880611ef4565b85548884018501529485019487945091830191611f17565b915050611f0294506020925060ff191682840152151560051b8201013880611ef4565b919082519283825260005b848110611f96575050826000602080949584010152601f8019910116010190565b602081830181015184830182015201611f75565b9060058210156111f35752565b6040906003190112610167576004359060243590565b8054821015611fe95760005260206000209060021b0190600090565b634e487b7160e01b600052603260045260246000fd5b6001600160401b03811161058f5760051b60200190565b81601f82011215610167578035906001600160401b03821161058f576040519261204a601f8401601f191660200185611ea3565b8284526020838301011161016757816000926020809301838601378301015290565b600435906001600160a01b038216820361016757565b8054821015611fe95760005260206000200190600090565b6001546001600160a01b031633036120ae57565b606460405162461bcd60e51b815260206004820152602060248201527f4f776e61626c653a2063616c6c6572206973206e6f7420746865206f776e65726044820152fd5b60001981146107ff5760010190565b919082018092116107ff57565b1561211557565b60405162461bcd60e51b815260206004820152600f60248201526e2737ba103a34329031b932b0ba37b960891b6044820152606490fd5b8051821015611fe95760209160051b010190565b1561216757565b60405162461bcd60e51b815260206004820152601760248201527f43616d706169676e20646f6573206e6f742065786973740000000000000000006044820152606490fd5b9060048210156111f35752565b6002600054146121ca576002600055565b60405162461bcd60e51b815260206004820152601f60248201527f5265656e7472616e637947756172643a207265656e7472616e742063616c6c006044820152606490fd5b674563918244f4000081101561224e57671bc16d674ec80000811015612248576706f05b59d3b20000111561224357600090565b600190565b50600290565b5060039056fea2646970667358221220a4d81c790e00e3f3004fc4eeb43c40fabd74a91d5bbe9b8308c211f657235e5664736f6c63430008130033",
  "linkReferences": {},
  "deployedLinkReferences": {}
}